:020000040800F2
:10000000E0B80020CD330008F9070008FB0700081E
:10001000FF070008030800080708000800000000A8
:100020000000000000000000000000000B080008B5
:100030000D0800080000000027090108FD01010863
:10004000E7330008E7330008E7330008E733000828
:10005000E7330008E7330008E7330008E733000818
:10006000E7330008E7330008E7330008E733000808
:10007000E7330008E7330008E7330008E7330008F8
:10008000E7330008E7330008E7330008E7330008E8
:10009000E7330008E7330008E7330008E7330008D8
:1000A000E7330008E7330008E7330008E7330008C8
:1000B000A9090008E7330008E7330008E733000820
:1000C000E7330008E7330008E7330008E7330008A8
:1000D000E73300080F080008690800088B080008CB
:1000E000E7330008E7330008E7330008E733000888
:1000F000E7330008E7330008E7330008E733000878
:10010000E7330008E7330008E7330008E733000867
:10011000E508000847090008E7330008E73300084E
:10012000E7330008E7330008E7330008E733000847
:10013000DFF80CD010F09EFB00480047790600085D
:10014000E0B800200EB500BF56E0FE48007810B9B8
:1001500002F024FE2EE0FB480078FF282AD0F94860
:100160000078092813D1F8A20121022001F0FEF83D
:10017000F4480278F8A1F94810F006FCF74A072184
:10018000022001F0F3F8FF20EE49087012E0F4A21B
:100190000121032001F0EAF8EA480278EEA1EF48D5
:1001A00010F0F2FBED4A0721032001F0DFF8FF20F9
:1001B000E4490870EE480078002814DDED48007826
:1001C000A12807D1EB484078A12803D1E9488078DD
:1001D000A12802D0E74802F08FFF0020E54908700F
:1001E0004870E349087002A8002114230A46CDE9AB
:1001F000001008460EF0F3FFA7E788B0DEA30FCB90
:10020000CDE90623CDE90401002500BFF3E0DE4877
:100210000078401CDC49087008460078032806D1A5
:10022000012503220821012001F0D0F80CE0D64876
:100230000078062808D100250020D3490870202224
:100240000821012001F0C2F8D0490878C11700EB5D
:1002500091718E10B006040E032C1DDACB48007885
:10026000844200D1C5B1CA48005D642190FBF1F21F
:1002700001FB12000A2190FBF1F03030C0B28DF882
:100280001400C348005D90FBF1F201FB1200303016
:10029000C0B28DF8150004E020208DF814008DF810
:1002A0001500601CC4B2032C20DAB84800788442E0
:1002B00000D1DDB12C208DF81600B548005D642119
:1002C00090FBF1F201FB12000A2190FBF1F03030BB
:1002D000C0B28DF81700AE48005D90FBF1F201FB53
:1002E00012003030C0B28DF818000DE0032C03DA94
:1002F0002C208DF8160002E020208DF8160020201A
:100300008DF817008DF81800601CC4B2032C20DA99
:100310009E480078844200D1DDB12C208DF8190070
:100320009B48005D642190FBF1F201FB12000A2161
:1003300090FBF1F03030C0B28DF81A009448005DA7
:1003400090FBF1F201FB12003030C0B28DF81B00BF
:100350000DE0032C03DA2C208DF8190002E0202098
:100360008DF8190020208DF81A008DF81B00601CF4
:10037000C4B2032C20DA85480078844200D1DDB174
:100380002C208DF81C008248005D642190FBF1F266
:1003900001FB12000A2190FBF1F03030C0B28DF861
:1003A0001D007B48005D90FBF1F201FB1200303034
:1003B000C0B28DF81E000DE0032C03DA2C208DF85E
:1003C0001C0002E020208DF81C0020208DF81D006C
:1003D0008DF81E005B48007820B904AA0121022094
:1003E00000F0C4FF03A8002196230A46CDE90010BF
:1003F00008460EF0F4FE0AE70EB500BF3CE000F040
:1004000081FC02F0A1F963480078022813DA614800
:100410000078401C5F49087008460078022805DB18
:100420004FF400515C4803F036FE04E04FF40051F5
:10043000594803F02EFE59480078022813DA57482D
:100440000078401C5549087008460078022805DBF2
:100450004FF48041504803F01EFE04E04FF4804109
:100460004D4803F016FE02A80021C8230A46CDE934
:10047000001008460EF0B3FEC1E730B58BB004465D
:10048000002500BF05F080FB0AA80CF0E1F805F09C
:1004900019FC0AAA0121084607F049FE00BF00BF67
:1004A00000BF05F009FD054600BF05F002FB00BFD7
:1004B0003B480078401C3A490870084600780128FB
:1004C00001D107F045FD00BF05F0D4FA00BF284672
:1004D00005F0F6FC00BF00BF00BF01F09FFF0AA8B7
:1004E000032100220592CDE90621089010464FF421
:1004F000007133222B4BCDE90132CDE903100620E8
:100500000023AFF20B1228A100902A480CF0D7FC70
:100510000AA8032100220592CDE906210890104681
:100520004FF400713322244BCDE90132CDE90310A1
:1005300005200023AFF23D3220A1009022480CF0AC
:10054000BEFC43E02F000020D6CEBEDF4944CAB92E
:10055000D3C3CDEA00000000253264003200002041
:10056000D6CEBEDFB4E6B4A2B3F6B4ED0000000010
:100570000A000020DA0100204A49443A78782C78B1
:10058000782C78782C7878002E000020310000201C
:10059000500000202C000020000C01402D00002005
:1005A00018010020400C00206C65643020746173D9
:1005B0006B000000780B0020081500206C6564318A
:1005C000207461736B000000401400200AA803210E
:1005D00000220592CDE90621089010464FF4806173
:1005E0006622784BCDE90132CDE9031004200023C7
:1005F000AFF2AF4274A1009076480CF060FC0AA9FB
:1006000075480EF069F900BF00BF00BF05F054FC4B
:10061000054600BF05F04DFA00BF70480078401E47
:100620006E49087008460078D0B907F0D3FC6C48D2
:10063000008800280BDD00BF05F01CFA00BF28462B
:1006400005F03EFC00BF00BF08F064F911E000BFF8
:1006500005F010FA00BF284605F032FC00BF08E0A4
:1006600000BF05F007FA00BF284605F029FC00BFCF
:1006700000BF00BF0BB030BD8AB0002400F0F8FE10
:1006800000F01AFE00F05AFB00F044FB00F012FAF2
:1006900000F068FB01F0B1FA0FF0BCFD01F06CFB5B
:1006A0004FF4A06002F0A4FE00F07FFB01200FF0E9
:1006B0000AFE00204B490870C8200FF004FEFF21FD
:1006C000072000F00DFB03220821012000F07EFE30
:1006D00000F018FB09A807F0F1FA00BF00BF00BF47
:1006E00005F0EAFB044600BF05F0E3F900BF3B4814
:1006F0000078401C3949087008460078012801D16B
:1007000007F026FC00BF05F0B5F900BF204605F054
:10071000D7FB00BF00BF00BF09A80321002205923C
:10072000CDE90621089010464FF4007133222E4B7C
:10073000CDE90132CDE9031003200023AFF2C52239
:100740002AA1009024480CF0BAFB00BF00BF00BFF4
:1007500005F0B2FB044600BF05F0ABF900BF1F482F
:100760000078401E1D49087008460078D0B907F08F
:1007700031FC1B48008800280BDD00BF05F07AF92A
:1007800000BF204605F09CFB00BF00BF08F0C2F888
:1007900011E000BF05F06EF900BF204605F090FBA8
:1007A00000BF08E000BF05F065F900BF204605F076
:1007B00087FB00BF00BF00BF09A807F062FD00BFB4
:1007C000FEE77047D01D00204B65795F7461736B45
:1007D00000000000081D0020B002002018010020C9
:1007E000DC0000203A00002078030020737461725E
:1007F00074207461736B0000704700BFFEE700BF98
:10080000FEE700BFFEE700BFFEE77047704710B588
:10081000002440F225518E4805F0A6F8F8B18C4826
:1008200005F022F8C4B28B4800780A2802DB0020C9
:10083000894908708948007888B987480178007824
:10084000401C854A10708648445410460078282879
:1008500002DD28201146087000207E4908704021E2
:100860007B4805F078F810BD10B5002440F2255102
:100870007C4805F079F818B17A4804F0F5FFC4B265
:100880004021784805F067F810BD10B5002440F20B
:100890002551754805F068F8F8B1734804F0E4FF95
:1008A000C4B2724800780A2802DB00207049087040
:1008B0007048007888B96E4801780078401C6C4A0E
:1008C00010706D484454104600781E2802DD1E202A
:1008D000114608700020654908704021624805F003
:1008E0003AF810BD10B5002440F22551634805F0D8
:1008F0003BF818B3614804F0B7FFC4B26048007811
:100900000A2802DB00205F4908705F480078A8B918
:100910005C4801780078401C5A4A10705B48445487
:10092000104600785A49087010460078142802DDF5
:1009300014201146087000205149087040214F488A
:1009400005F009F810BD10B5002440F225515148BA
:1009500005F00AF818B34F4804F086FFC4B24E48B9
:1009600000780A2802DB00204C4908704C480078C7
:10097000A8B94A4801780078401C484A1070494894
:1009800044541046007848490870104600781428EE
:1009900002DD14201146087000203F4908704021F4
:1009A0003C4804F0D8FF10BD10B50121880704F0C1
:1009B00006FE00284BD0384800780A280BDA364863
:1009C0000078401C34490870084600780A2802DB89
:1009D0000120334908702A4800780A280BDA284891
:1009E0000078401C26490870084600780A2802DB77
:1009F000012025490870174800780A280BDA1548A5
:100A00000078401C13490870084600780A2802DB69
:100A100001201249087025480078C82813DA2348B5
:100A20000078401C2149087008460078C82805DB7A
:100A30004FF480711E4803F02EFB04E04FF48071E8
:100A40001B4803F026FB0121880704F0C9FD10BDF7
:100A500000380140040000203B0000200A00002074
:100A6000DA0100200044004000480040010000205E
:100A70003D0000200700002080010020004C0040C5
:100A8000060000203E0000200C000020160200207E
:100A90000E00002000500040050000203F00002014
:100AA0000B000020020200200D0000203A00002070
:100AB0000010014008B50121082003F07FFD4FF42C
:100AC0009C70ADF8000003208DF8020048208DF8DE
:100AD00003006946774803F02FFA0121092003F04B
:100AE0006DFD0121744803F0F8FA08BD10B500242B
:100AF0000821704803F0B3FA08B9012000E0002093
:100B000004434FF480716B4803F0A9FA08B1002048
:100B100000E0022004431021664803F0A0FA08B167
:100B2000002000E0102004432021624803F097FADF
:100B300008B1002000E020200443204610BD002121
:100B40005E480078002815DD5C480078401E5B4A4E
:100B500010705B485B4A1278815C5A480078401CF0
:100B6000584A107010460078052801DB00201070EC
:100B7000084670470020FCE710B504464F4800784F
:100B8000052801DBFFF7DBFF4C480078401C4B4990
:100B900008704D4801780078401C4B4A1070484856
:100BA000445410460078052802DB002011460870E6
:100BB00010BD70B5002600240025FFF797FF0646FC
:100BC000424800783040414909787140404A1278E3
:100BD000114040EA01043E49097884EA01003C4999
:100BE000097800EA01053A480078844225D124B307
:100BF00038480078401E3749087008460078F8B930
:100C000024F0100030B13449097844EA0100FFF7BC
:100C1000B3FF0CE004F0100030490978884330B18C
:100C20002D4909782143C943C8B2FFF7A5FF0F201A
:100C3000284908702948047002E01E2025490870E0
:100C4000A5B12648007825EA000060B105F0400013
:100C500021490978484020490870097845EA01008F
:100C6000FFF78AFF02E000201C4908701748067051
:100C70001748047070BD10B5FFF761FF10BD00206C
:100C80000E490978002901DD012100E00021084614
:100C9000704710B500BFFFF7EEFF0028FBD110BD75
:100CA000002006490978002901DD012100E000212A
:100CB00008467047000C0140000230004E00002042
:100CC000470000204D0000204C0000204200002082
:100CD0004300002046000020440000204500002082
:100CE00070B505460C4645F2555003F073FA284698
:100CF00003F073FA204603F073FA03F074FA03F07A
:100D000077FA70BD10B503F06EFA10BDC2684A40A4
:100D1000C260704708B50121082003F04FFC4FF472
:100D2000E040ADF8000003208DF8020010208DF89F
:100D300003006946F24803F0FFF808BD08B5012139
:100D4000102003F03BFC4FF48070ADF8000003204E
:100D50008DF8020010208DF803006946E94803F081
:100D6000EBF808BD08B50121042003F027FC4FF47F
:100D70001840ADF8000003208DF8020010208DF817
:100D800003006946E04803F0D7F84FF40061DE48FD
:100D900003F07FF94FF48051DB4803F07AF94FF408
:100DA0000041D94803F077F908BD1FB54FF08040E6
:100DB00003F00CFD0121084603F00DFC4FF47A709E
:100DC000ADF808004720ADF804000020ADF80A0097
:100DD000ADF806008DF80C0001A94FF0804003F03B
:100DE000C9FD0121880704F0E7FB012211469007A5
:100DF00004F037F90121880704F018F94FF4A060D6
:100E000002F0F6FA1C208DF8000002208DF8010097
:100E100000208DF8020001208DF80300684602F0E2
:100E2000ECFA1FBD08B50121102003F0C7FB4FF4F9
:100E30004060ADF8000003208DF8020014208DF80A
:100E400003006946AF4803F077F808BD10B50246C5
:100E50000B4600241078AA2801D0002010BD0021E4
:100E600005E010782044C4B2521C481CC1B2581E80
:100E70008842F6DC1078A04201D00020EEE7012085
:100E8000ECE73CB502460024019400234C78147032
:100E9000002005E0841C0C5D0DF80040441CE0B20D
:100EA0000428F7DB009C54608B79CC7904EB032495
:100EB0009481002006E000F108040C5D0DF800406C
:100EC000441CE0B20428F6DB009C94600B7B4C7B56
:100ED00004EB0324D4813CBD1FB581B0079C0021E5
:100EE000AA2222709DF804206270029A00920020CB
:100EF00005E01DF80030821CA354421CD0B2042827
:100F0000F7DBBDF810201212A271BDF81020E271BB
:100F1000039A0092002006E01DF8003000F108025C
:100F2000A354421CD0B20428F6DBBDF812201212E2
:100F30002273BDF812206273002004E0225C0A4490
:100F4000D1B2421CD0B20E28F8DBA17305B010BD9F
:100F500018B50246002005E0431CCB5C0DF80030BC
:100F6000431CD8B20428F7DB009B1360002005E087
:100F7000431DCB5C0DF80030431CD8B20428F7DBCE
:100F8000009B5360002006E000F10903CB5C0DF8E4
:100F90000030431CD8B20428F6DB009B936000208D
:100FA00006E000F10D03CB5C0DF80030431CD8B215
:100FB0000428F6DB009BD360002006E000F111035B
:100FC000CB5C0DF80030431CD8B20428F6DB009B44
:100FD0001361002006E000F11503CB5C0DF8003032
:100FE000431CD8B20428F6DB009B536118BD0FB434
:100FF00018B50A9C0021AA222270039A00920020B0
:1010000004E01DF80030421CA354D0B20428F8DBE1
:10101000049A0092002005E01DF80030421DA35400
:10102000421CD0B20428F7DB059A0092002006E0AB
:101030001DF8003000F10902A354421CD0B204286C
:10104000F6DB069A0092002006E01DF8003000F161
:101050000D02A354421CD0B20428F6DB079A00927A
:10106000002006E01DF8003000F11102A354421CDC
:10107000D0B20428F6DB089A0092002006E01DF8A2
:10108000003000F11502A354421CD0B20428F6DB54
:10109000002004E0225C0A44D1B2421CD0B21928DC
:1010A000F8DB617618BC5DF814FB10B50346002030
:1010B00003E00C5C1C54441CA0B29042F9DB10BD50
:1010C0002DE9F04105460E46174602F080FA35201C
:1010D00002F0AFFE0D4802F000FB00240AE02A5D9A
:1010E0002B195B7802EB032291B2301902F0DCFC81
:1010F000A01C84B2BC42F2DB02F07FFABDE8F081B2
:10110000000C0140001001400008014000A00F0841
:1011100000E0401E0028FCD1704707E042F63D0188
:1011200000BF0A00A1F10101FBD1401E0028F5D14A
:10113000704708B50121202003F040FA012140202A
:1011400003F03CFA4CF2B300ADF8000010208DF82B
:10115000030003208DF802006946BD4802F0ECFE52
:101160004FF4F060ADF8000010208DF8030003206C
:101170008DF802006946B74802F0DEFE08BD10B5E2
:10118000B34C0C34216843F6FC742140034603F051
:10119000030441EA8431C3F381042143AD4C0C3490
:1011A00022684FF67F04224003F0F00442EAC402B2
:1011B000A74C0C342160A74C0C34226010BD10B534
:1011C00004461020A24914310860202008608020C5
:1011D000091F08604FF41670FFF79AFF2046FFF7CB
:1011E000CEFF4FF41670FFF793FF8020984914311B
:1011F000086010BD10B504461020954910310860F4
:101200002020091D08608020091F08604FF4167017
:10121000FFF77EFF2046FFF7B2FF4FF41670FFF78F
:1012200077FF80208A491431086010BD70B5002511
:101230001DE0002417E03420FFF7C1FF05F1800115
:10124000C8B2FFF7BCFF04F18001C8B2FFF7B7FFD7
:101250003020FFF7B4FF0020FFF7CCFF0020FFF79E
:10126000C9FF601CC4B2082CE5DB681CC5B2202D88
:10127000DFDB00251DE0002417E03420FFF79FFF8F
:1012800005F18001C8B2FFF79AFF04F18801C8B2E6
:10129000FFF795FF3020FFF792FF0020FFF7AAFF2E
:1012A0000020FFF7A7FF601CC4B2082CE5DB681C18
:1012B000C5B2202DDFDB70BD10B5FFF73AFF8020EF
:1012C0006349143108600120634908604FF4FA70E3
:1012D000FFF723FF01206049091F08606420FFF722
:1012E0001CFF3020FFF76BFF0120FFF711FF3020BC
:1012F000FFF765FF0120FFF70BFF0820FFF75FFFF7
:101300000120FFF705FF0120FFF759FF4FF4487058
:10131000FFF7FEFE0620FFF752FF0520FFF7F8FE5D
:101320000C20FFF74CFF0520FFF7F2FE6420FFF7CB
:10133000F4FEFFF77BFF0A20FFF7EFFE10BD70B54C
:1013400006460C4620460FF030F8C5B23020FFF7B5
:1013500036FF3046FFF733FF05E014F8010BFFF7C7
:1013600049FF681EC5B2002DF7D170BD2DE9F041CF
:1013700007460C4616460320FFF721FF012F06D033
:10138000022F08D0032F0AD0042F10D10BE004F154
:101390007F00C5B20CE004F18F00C5B208E004F193
:1013A0008700C5B204E004F19700C5B200E000BFB9
:1013B00000BF2846FFF703FF03E016F8010BFFF715
:1013C00019FF30780028F8D1BDE8F0812DE9F0410F
:1013D00006460C4617460320FFF7F1FE012E06D005
:1013E000022E08D0032E0AD0042E10D10BE004F1F7
:1013F0007F00C5B20CE004F18F00C5B208E004F133
:101400008700C5B204E004F19700C5B200E000BF58
:1014100000BF2846FFF7D3FE3846FFF7EBFEBDE8D6
:10142000F08110B50DA201210846FFF79FFF0BA226
:1014300001210220FFF79AFF08A201210320FFF7F4
:1014400095FF06A201210420FFF790FF10BD0000C8
:101450000014014000180140140801402020202001
:1014600020202020202020202020202000000000FC
:1014700000B587B00121042003F0A0F80121082065
:1014800003F09CF80121102003F098F8012120209E
:1014900003F094F80121880303F090F80121480437
:1014A00003F099F80121880403F095F80121C8049C
:1014B00003F091F80121080503F08DF84020ADF804
:1014C000180003208DF81A0010208DF81B0006A9C3
:1014D000F84802F031FD4FF40070ADF81800032019
:1014E0008DF81A0018208DF81B0006A9F24802F0AA
:1014F00023FD4FF48060ADF8180004208DF81B0028
:1015000006A9ED4802F018FD4FF48060ADF8180010
:1015100003208DF81A0018208DF81B0006A9E74853
:1015200002F00AFD4FF40060ADF8180004208DF8B9
:101530001B0006A9E14802F0FFFC4FF48060ADF803
:10154000180003208DF81A0018208DF81B0006A93A
:10155000D84802F0F1FC4FF40060ADF81800042008
:101560008DF81B0006A9D34802F0E6FC4FF480502A
:10157000ADF8180003208DF81A0018208DF81B0014
:1015800006A9CC4802F0D8FC0420ADF818008DF86C
:101590001B0006A9CA4802F0CFFCCA4804F024F890
:1015A0004FF4E13002900020ADF80C00ADF80E00D1
:1015B000ADF81000ADF814000C20ADF8120002A92F
:1015C000C04804F054F8012240F22551BD4804F00F
:1015D000E6F80121BB4804F0D6F84021B94804F0F0
:1015E000BAF94021B74804F0A9F9B74803F0FCFF65
:1015F0004FF4165002900020ADF80C00ADF80E002C
:10160000ADF81000ADF814000C20ADF8120002A9DE
:10161000AD4804F02CF8012240F22551AA4804F00C
:10162000BEF80121A84804F0AEF84021A64804F015
:1016300092F94021A44804F081F9A44803F0D4FFB2
:101640004FF4E13002900020ADF80C00ADF80E0030
:10165000ADF81000ADF814000C20ADF8120002A98E
:101660009A4804F004F8012240F22551974804F00A
:1016700096F80121954804F086F84021934804F03B
:101680006AF94021914804F059F9914803F0ACFF00
:101690004FF4E13002900020ADF80C00ADF80E00E0
:1016A000ADF81000ADF814000C20ADF8120002A93E
:1016B000874803F0DCFF012240F22551844804F002
:1016C0006EF80121824804F05EF84021804804F061
:1016D00042F940217E4804F031F925208DF80400BC
:1016E00000208DF805008DF8060001208DF8070018
:1016F00001A801F082FE27208DF8040000208DF85B
:10170000050002208DF8060001208DF8070001A8D1
:1017100001F073FE34208DF8040000208DF80500E0
:1017200003208DF8060001208DF8070001A801F0C4
:1017300064FE35208DF8040000208DF8050004209B
:101740008DF8060001208DF8070001A801F055FE74
:1017500007B000BD10B5044621465A4804F080F891
:1017600000BF4021574804F0E9F80128F9D110BD25
:1017700038B504460D4640214E4802F08AFC40210F
:10178000504804F0DBF80020009004E09DF80000D1
:10179000401CC0B200909DF800001428F6DB002029
:1017A000009009E09DF80010605CFFF7D3FF9DF802
:1017B0000000401CC0B200909DF80000A842F1DB80
:1017C0000020009004E09DF80000401CC0B2009092
:1017D0009DF800001428F6DB4021364802F05BFC3F
:1017E00038BD38B504460D464021324802F051FC60
:1017F0004021344804F0A2F80020009004E09DF855
:101800000000401CC0B200909DF800001428F6DBD8
:101810000020009009E09DF80010605CFFF79AFF3F
:101820009DF80000401CC0B200909DF80000A84246
:10183000F1DB0020009004E09DF80000401CC0B2E5
:1018400000909DF800001428F6DB4021194802F0B2
:1018500022FC38BD10B5044621461C4804F000F8AF
:1018600000BF4021194804F069F80128F9D110BDE2
:1018700070B505460E464021144804F05FF8002478
:1018800004E0285DFFF7E6FF601CC4B2B442F8DB59
:1018900070BD70B505460E4640210C4804F04EF868
:1018A000002404E0285DFFF7D5FF601CC4B2B442F9
:1018B000F8DB70BD0010014000080140000C014041
:1018C000001401400038014000480040004C004036
:1018D0000050004010B504462146264803F0C0FFE2
:1018E00000BF4021234804F029F80128F9D110BD98
:1018F00070B505460E4640211E4804F01FF800242E
:1019000004E0285DFFF7E6FF601CC4B2B442F8DBD8
:1019100070BD10B504462146174803F0A1FF00BF73
:101920004021154804F00AF80128F9D110BD70B51E
:1019300005460E464021104804F000F8002404E05B
:10194000285DFFF7E6FF601CC4B2B442F8DB70BD4F
:1019500070B505460E464021074803F0EFFF00240E
:1019600004E0285DFFF7D5FF601CC4B2B442F8DB89
:1019700070BD0000004800400050004008B5012143
:10198000202002F01BFE4FF4C060ADF800001020D4
:101990008DF8030003208DF802006946F34802F039
:1019A000CBFA4FF4C061F14802F073FB08BD10B5EB
:1019B000EE48001D006820F0F000EC49091D0860A9
:1019C0000846006840F0300008600120E8490860DF
:1019D000E849C1F8A80104200EF04AFC0020E449BF
:1019E000086004200EF044FC0020E249C1F8A80180
:1019F00010BD10B5DD48001D006820F0F000DB4987
:101A0000091D08600846006840F0300008600020AA
:101A1000D749091D0860D749C1F8A40104200EF078
:101A200027FC0120D249091D0860D249C1F8A40150
:101A300004200EF01DFC10BD10B50024CB48001D85
:101A4000006820F0F000C949091D086008460068D8
:101A500040F0800008600120C54908600EF008FCD5
:101A60000120C449C1F8A8010EF002FC07E0601C87
:101A7000C4B2FA2C03DDFFF7BCFF012010BDBC4847
:101A8000803800680028F2D1B949091D086000BFFC
:101A9000F4E710B50020B649091D0860B348001DE1
:101AA000006820F0F000B149091D08600846006890
:101AB00040F0300008600020AE49C1F8A4010220C7
:101AC0000EF0D6FB0120AA49091D086002200EF085
:101AD000CFFB0020A749C1F8A80110BD10B5002018
:101AE000A349091D0860A148001D006820F0F0000E
:101AF0009E49091D08600846006840F030000860F3
:101B000001209C49C1F8A40102200EF0B1FB012084
:101B10009749091D086002200EF0AAFB0020954994
:101B2000C1F8A80110BD70B504469048001D0068BA
:101B300020F0F0008D49091D08600846006840F05B
:101B40003000086000208A49091D086000251DE05A
:101B5000E00918B101208649086002E000208449AC
:101B600008606006040E02200EF082FB012080490E
:101B7000091D086002200EF07BFB00207D49C1F8A2
:101B8000A80102200EF074FB681CC5B2082DDFDB33
:101B900070BD70B5054600247448001D006820F033
:101BA000F0007249091D08600846006840F0800096
:101BB0000860002617E000206D49091D086002201A
:101BC0000EF056FB01206B49C1F8A8016006040E17
:101BD00067488038006808B1601CC4B201200EF06C
:101BE00047FB701CC6B2082EE5DB15B9FFF776FF80
:101BF00001E0FFF74EFF204670BD10B5FFF7BEFEB7
:101C000010BD70B504460026FFF7D1FEA020FFF7F7
:101C10008AFFFFF711FF2012FFF785FFFFF70CFF88
:101C20002546E11704EB11610912A4EB0121C8B2AA
:101C3000FFF779FFFFF700FFFFF7B9FEA120FFF7DD
:101C400072FFFFF7F9FE0020FFF7A3FF0646FFF73C
:101C5000D0FE304670BD70B504460E46FFF7A7FEB5
:101C6000A020FFF760FFFFF7E7FE2012FFF75BFF02
:101C7000FFF7E2FE2546E11704EB11610912A4EB20
:101C80000121C8B2FFF74FFFFFF7D6FE3046FFF73E
:101C90004AFFFFF7D1FEFFF7ACFE0A200EF013FB60
:101CA00070BD2DE9F04105460E461746002409E0B7
:101CB000E20026FA02F2D1B22A1990B2FFF7CBFF66
:101CC000601CC4B2BC42F3DBBDE8F0812DE9F041F9
:101CD00007460C460026002509E036023919491B43
:101CE000491E88B2FFF78DFF0644681CC5B2A542A5
:101CF000F3DB3046BDE8F08110B5FF20FFF781FF30
:101D00000446552C01D1002010BD5521FF20FFF7BE
:101D1000A2FFFF20FFF775FF0446552C01D10020DC
:101D2000F2E70120F0E770B506460C46154608E0DC
:101D30003046721C96B2FFF764FF04F8010B681E70
:101D400085B2002DF4D170BD70B505460C4616461F
:101D500006E021782846FFF77EFF681C85B2641CE8
:101D60003000A6F101018EB2F3D170BD0014014024
:101D7000A48122420080224210B5042001F0DBFB46
:101D800045F65A21884237D001214FF0C05002F069
:101D900022FC012002F049FA01F098FB012002F038
:101DA0007AFB002401E0601C84B241F28830844256
:101DB000F9DB00BF412002F0D6FA0028FAD04FF438
:101DC000807002F084FB012002F087FB02F0BFFC70
:101DD00002F0B4FC0121084602F054FC02F0AEFC13
:101DE00047F6FF7002F084FC02F0A8FC45F65A2189
:101DF000042001F094FB1BE001214FF0C05002F0E1
:101E0000EAFB002401E0601C84B241F28830844285
:101E1000F9DB7B2002F0A7FA10B97A2002F0A3FACE
:101E200002F00AFC0121084602F02CFC02F086FCBC
:101E300010BD10B504469148C06940F000608F495C
:101E4000C8618F48006840F480708D4908600120A7
:101E500002F0EBF902F072FC02F021FC204602F0E5
:101E60003AFC02F06BFC02F023FC10BD2DE9F04FB0
:101E700004460D4616469846DDE9097C4FF00009F8
:101E80000022A4F5FA6084B220464FEAE47A04EB1B
:101E90009A7A4FEAAA0A40F26D1B0BFB04AA1FFABA
:101EA0008AF94FEAE47A04EB9A7A4FEAAA0AA4EB99
:101EB0008A0ABAF1000F01D1724B00E0724B002187
:101EC00004E0585C104482B2481CC1B2681E8842CB
:101ED000F7DC701E104482B209EB020000EB4000F8
:101EE000C0004FF4616A00FB0AF0C8EB481ACAEB65
:101EF000082A00EB0A10C7EB071A00EB8A006044BF
:101F0000BDE8F08FFCB504460A465F4D5F4BB2FB5F
:101F1000F3F39EB25D4BB2FBF3F703FB17205C4B70
:101F2000B0FBF3F303EB860303F5FA639BB2ADF862
:101F30000030574BB0FBF3F703FB1700BDF8003040
:101F4000DF1703EB9777BF10A3EB870707B94D4D5A
:101F500001238DF8023000211EE06B5C03EB43038C
:101F6000DB00C3EB4317C7EB0323B0EB031F10D910
:101F70009DF802305B1CDBB28DF802306B5C03EB2A
:101F80004303DB00C3EB4317C7EB0323A0EB0310B2
:101F900000E003E04B1CD9B20C29DEDB00BF3D4B57
:101FA000B0FBF3F35B1CDBB28DF80330394BB0FBB5
:101FB000F3F703FB17004FF46163B0FBF3F3DBB2FD
:101FC0008DF804304FF46163B0FBF3F703FB1700A7
:101FD0003C23B0FBF3F3DBB28DF805303C23B0FBC0
:101FE000F3F703FB17038DF80630009B2360019B7A
:101FF0006360FCBD10B586B002F064FB0446214668
:1020000002A8FFF77FFFDDE90201CDE904019DF899
:1020100016009DF815109DF814209DF81330CDE999
:102020000032CDE902109DF81230BDF810201AA13F
:1020300021480EF0A9FC204806B010BD70B504463A
:1020400002F040FB054629462046FFF75BFF70BDC6
:102050002DE9FC4704460D4616461F46DDE90A8A6F
:102060003B46324629462046CDE9008AFFF7FEFE70
:102070008146FFF7DEFEBDE8FC870000001002404D
:10208000007000406C12010878120108801F86075A
:102090008033E10180510100253034642D25303238
:1020A000642D253032642020253032643A253032C8
:1020B000643A253032640000022E002010B5002062
:1020C00068240346401CFE4AD454FE4A12780B236F
:1020D00003EB8202D4B20346401CF94AD454FA4AB4
:1020E0001268130E0446401CF54A1355F64A12684E
:1020F000C2F307440346401CF14AD454F24A128802
:10210000C2F307240346401CED4AD454EE4A147827
:102110000346401CEA4AD454EC4A1268130E0446A3
:10212000401CE74A1355E94A1268C2F307440246C5
:10213000431CD8B2E24B9C54E44A1288C2F30724F1
:102140000246431CD8B2DE4B9C54E04A1478024647
:10215000431CD8B2DA4B9C54DA4A14780246431C2A
:10216000D8B2D74B9C54002126E0D94A52F82120FE
:10217000120E0346441CE0B2D14CE254D44A52F849
:102180002120C2F307440246431CD8B2CC4B9C54D6
:10219000CF4A32F82120C2F307240246431CD8B2AA
:1021A000C74B9C54CA4A12F821400246431CD8B27D
:1021B000C34B9C544A1CD1B2C24A12789142D4DB20
:1021C00010BD30B503460C46002100BF07E0585C47
:1021D000655CA84201D0002030BD481CC1B29142CC
:1021E000F5DB0120F8E710B502460024042901DAE6
:1021F000002010BD1078A52803D1481E105C5A2875
:1022000001D00020F5E7012304E0D05C2044C4B2F3
:10221000581CC3B2881E9842F7DC105CA04201D063
:102220000020E6E70120E4E72DE9F0438BB081468A
:102230000F4615464FF00008002600200790089032
:1022400009900A900390049005900690A5223146CB
:10225000761C07A842543146761C4554002407E0FA
:102260003A5D3146701CC6B207A84254601CC4B225
:10227000AC42F5DB012406E007A8005D404400F015
:10228000FF08601CC4B2A81C8442F5DB3046711CF8
:10229000CEB207A901F800805A208855002428E012
:1022A0002A1D07A94846FFF74FFD02A80021322347
:1022B0000A46CDE9001008460CF091FF2A1D03A93B
:1022C0004846FFF730FD281DC2B203A907A8FFF753
:1022D00078FF18B101200BB0BDE8F08302A80021FF
:1022E00032230A46CDE9001008460CF078FF601C46
:1022F000C4B2032CD4DB0020EDE770B588B0002019
:1023000004900590069007900026002515E0052210
:1023100004A91120FFF707FD052104A8FFF763FFBB
:1023200000B10CE003A8002132230A46CDE90010D9
:1023300008460CF054FF681CC5B2052DE7DB00BF52
:10234000052D05DB012063490870002008B070BD31
:102350005C48007800285FDD5A480078042101EBD2
:102360008000C6B200254DE0324604A91620FFF7D2
:10237000DAFC314604A8FFF736FFB8B3002430E09A
:10238000022000EB840004A9085C514941F82400B4
:10239000032000EB840004A9085C4D4951F8241087
:1023A00000EB01204A4941F82400042000EB84009E
:1023B00004A9085C464951F8241000EB0120444967
:1023C00041F82400052000EB840004A9085C404982
:1023D00051F8241000EB01203D4941F82400601C15
:1023E000C4B2384800788442CADB0DE0FFE703A896
:1023F000002132230A46CDE9001008460CF0EFFE1A
:10240000681CC5B2052DAFDB00BF052D04DB022023
:1024100030490870002099E7012097E730B591B066
:102420000025342104A80DF0B5FF002424E02A483B
:10243000005D2A4901EB041108700020274901EBD7
:1024400004114860254901EB0411087296202349C4
:1024500001EB041188720020204901EB0411C872BD
:1024600005201E4901EB0411087300201B4901EBF4
:1024700004114873601CC4B2032CD8DB002440E074
:10248000082204A90120FFF74EFC082104A8FFF749
:10249000AAFE28B39DF812000C4908609DF81300AD
:1024A000096800EB0120094908609DF814000968DB
:1024B00000EB0120054908609DF81500096810E04F
:1024C0005C2E00201C0000201800002020000020AE
:1024D000840200202F000020500000202C2E00201D
:1024E00004E000EB0120F94908600CE003A800219A
:1024F00032230A46CDE9001008460CF070FE601C3D
:10250000C4B2052CBCDB00BFF048F1A10268F14861
:102510000EF03AFAEF4A06210420FEF727FF0024C6
:102520003CE0082204A90920FFF7FDFB082104A8CC
:10253000FFF759FE38B39DF81200E74908609DF88F
:102540001300096800EB0120E34908609DF81400BE
:10255000096800EB0120E04908609DF81500096852
:1025600000EB0120DC49086008460068DB4988422E
:1025700005D3D9480068D9496431884202D309207B
:10258000D74908700CE003A8002132230A46CDE9A0
:10259000001008460CF023FE601CC4B2052CC0DB02
:1025A00000BF052C02DB0320CD490870FFF7A5FE14
:1025B000CCA202210120FEF7D9FECDA207210120E5
:1025C000FEF7D4FEC448CBA10268C2480EF0DCF985
:1025D000C04A01210320FEF7C9FE11B030BD30B55D
:1025E00087B0002003900490059000900190029025
:1025F0000122C2491120FFF717FE60B90420B84933
:102600000870FFF75BFD04462246BD49BD48FEF752
:1026100057FD07B030BD002413E0BB4850F824003C
:102620000690002509E0C5F1030006A9085C05EB4A
:10263000840103AA5054681CC5B2042DF3DB601C4E
:10264000C4B2AE4800788442E7DBAC48007880062C
:10265000020E03A91620FFF7E7FD50B90520A04997
:102660000870FFF72BFD04462246A549A548FEF752
:1026700027FD00BFCDE700201EE0A34A52F820202E
:1026800002B117E001460FE09F4A52F821204AB1FB
:102690009D4A52F821209C4B43F82020002243F809
:1026A000212005E04A1CD1B2944A12789142EBDB1A
:1026B00000BF00BF421CD0B2904A12789042DCDBCF
:1026C0000021002007E0904A52F820200AB14A1C5D
:1026D000D1B2421CD0B2894A12789042F3DB7047E3
:1026E00070B5002585480078002818DD002412E028
:1026F000854850F8240060B1834850F824500020E9
:10270000814941F82400FFF7B6FFFFF768FF28462C
:1027100070BD601CC4B2794800788442E8DB0020B8
:10272000F6E7014601B97047002007E0764A52F803
:1027300020208A4200D1F6E7421CD0B26F4A1278BC
:102740009042F3DB00BFEEE770B50025002428E0DF
:102750006E4800EB0410007808B36C4800EB0410DE
:10276000807A96281BDA694800EB0410807A401CB6
:10277000664901EB041188720125644800EB0410DE
:10278000807A96280BDB614901EB04114868FFF75A
:10279000C8FF00205D4901EB0411486003E0601CA4
:1027A000C4B2032CD4DB00BF002D0FDD58480078E5
:1027B000E8B901205649087056A20221FEF7D6FD5D
:1027C00057A207210120FEF7D1FD10E05048007804
:1027D00001280CD100204E49087042A2022101209C
:1027E000FEF7C4FD42A207210120FEF7BFFD70BD28
:1027F00010B500220021B0E0444B03EB01131B781D
:1028000003B1A8E008468FE0404B03EB00131B78B0
:10281000002B59D03D4B03EB00131B783B4C04EBD2
:1028200001142370394B03EB00135B68374C04EB46
:1028300001146360354B03EB00131B7A334C04EB3C
:1028400001142372314B03EB00139B7A2F4C04EBE2
:102850000114A3722D4B03EB0013DB7A2B4C04EB1A
:102860000114E372294B03EB00131B7B274C04EB91
:1028700001142373254B03EB00135B7B234C04EB08
:10288000011463730023214C04EB001423701F4CCC
:1028900004EB001463601D4C04EB001423729623B8
:1028A0001A4C04EB0014A3720023184C04EB001420
:1028B000E3720523154C04EB001423730023134C1F
:1028C00004EB0014637334E02CE0000020000020CF
:1028D00025366400732E0020180000208A70000145
:1028E0002F000020BEDBD1F4B5E7D7D300000000F5
:1028F000CFD0000049443A25303858001C00002051
:1029000000A00F085C2E0020840200202C2E002046
:1029100055000020C7EBCEF0B9D8BBFA000000008C
:10292000C3A60000431CD8B2F84B1B789842FFF6B0
:102930006BAF00BF0020002108E0F54B03EB011353
:102940001B780BB1431CD8B24B1CD9B20329F4DB62
:10295000EE4B187000BF4B1CD9B2EC4B1B78994260
:10296000FFF64AAF10BD30B50546002428E0E84820
:1029700000EB04100078A84220D10020E44901EBCC
:1029800004110870E24901EB04114860E04901EBD1
:10299000041108729620DE4901EB041188720020B0
:1029A000DB4901EB0411C8720520D94901EB041180
:1029B00008730020D64901EB04114873601CC4B2AF
:1029C000D24800788442D2DBFFF712FF30BD30B529
:1029D00002460025002455781078682801D0002090
:1029E00030BD281D884201D00020F9E7481E105C48
:1029F000162801D00020F3E7002305E0981C105CA6
:102A00002044C4B2581CC3B2AB42F7DB881E105C32
:102A1000A04201D00020E3E79078E1E770B586B0EE
:102A2000BCA103C9CDE9040100264AE01421BB483A
:102A30000DF0B0FC0020BA490870052104A8FEF78B
:102A400087FF002539E0B648007800282ADDB54820
:102A50000178B248FFF7BBFFA1281BD1AF484079EE
:102A6000B1490870002406E0AC48C0782044AF4962
:102A70000855601CC4B2AC4800788442F4DB0020E6
:102A8000A7490870A7480178A4480DF083FC0120ED
:102A900006B070BD0020A2490870A24801789F4886
:102AA0000DF078FC03A800210F230A46CDE90010A1
:102AB00008460CF094FB681CC5B2462DC3DB701CA5
:102AC000C6B2032EB2DB0020E2E72DE9F04788B062
:102AD0008046894616464FF0000A002420216846A9
:102AE0000DF058FCF01CC7B268222146641C0DF89A
:102AF00001202146641C0DF8017040222146641C0F
:102B00000DF801202146641C0DF8018000222146A9
:102B1000641C0DF80120002508E019F80520204666
:102B2000611CCCB20DF80020681CC5B2B542F4DBC4
:102B3000002507E0A81C1DF80000504400F0FF0A23
:102B4000681CC5B2BD42F5DB2046611CCCB20DF855
:102B500000A016200DF80400381DC1B26846FEF72B
:102B6000F7FE08B0BDE8F0871CB5044670A103C9A4
:102B7000CDE90001062269462046FFF7A6FF1CBDED
:102B8000FEB507460C4600260020009001900290FA
:102B900068208DF80000A2208DF8010005208DF836
:102BA0000200F2208DF80300200E8DF80400200CA6
:102BB0008DF80500200A8DF80600E0B28DF80700B8
:102BC000002505E01DF805003044C6B2681CC5B2FA
:102BD000082DF7DB8DF8086016208DF809000A2211
:102BE00069463846FFF771FFFEBDFEB505460E4645
:102BF0000027002000900190029005B9FEBD6820DA
:102C00008DF80000A2208DF8010002208DF802004E
:102C1000F4208DF803008DF80460002405E01DF811
:102C200004003844C7B2601CC4B2052CF7DB8DF831
:102C3000057016208DF80600072269462846FFF722
:102C400044FF00BFDAE70FB5002015E0304901EB83
:102C5000001109789DF8002091420BD19DF80910D0
:102C60002B4A02EB001251729DF80A10284A02EB1F
:102C700000129172411CC8B20328E7DB0FBD2DE999
:102C8000FF4F04460F460025A846A946AA46AB4674
:102C90002078682801D0BDE8FF8FA578681DB8426C
:102CA00000D0F8E7002605E0A05D404400F0FF08F2
:102CB000701CC6B2E81C8642F6DB205C404500D0A2
:102CC000E9E7281D205C162800D0E4E7607900B908
:102CD000E1E794F8019094F803A060798DF8000082
:102CE000B9F1A20F58D1002013490870AAF1F100E0
:102CF000062848D2DFE800F00322293039400120BD
:102D00008DF8090096208DF80A0040E0540000205C
:102D10002C2E002068012121160000000202002054
:102D20000B0000200D0000201700002011000020E3
:102D3000680201F15C1600002C00002002208DF8D2
:102D4000090000208DF80A0021E001208DF809001B
:102D500000208DF80A001AE003208DF80900962063
:102D60008DF80A000020019011E004208DF8090080
:102D700096208DF80A000AE005208DF809009620BB
:102D80008DF80A0003E000208DF8000000BF00BFAE
:102D90009DE80F00FFF757FF00BF7CE77FB50026D7
:102DA000002481E1C2480470C2480078012817D18C
:102DB0000020C0490870C0490870C04805780AE082
:102DC00003A8002114230A46CDE9001008460CF0A0
:102DD00006FA681CC5B2B94800786430A842EFDC36
:102DE0004FF48051B64801F054F9B64901EB041193
:102DF0000878FFF7B9FE4FF48051B14801F04BF964
:102E00000020B04901EB04114872AF490870AF4887
:102E10000178AF480DF0BEFA0020A84908703BE1E8
:102E2000A948007801287DD10020AA490870A74848
:102E30000178A748FFF723FF0020A3490870A348A3
:102E40000178A3480DF0A6FA9E4800EB0410407AE2
:102E5000012802D19749087023E19A4800EB041039
:102E6000407A022878D1012092490870954800EBF9
:102E70000410406800284DD197480078002806DDEE
:102E8000FFF72EFC8F4901EB0411486042E09348A4
:102E900000688C4901EB0411486090480068904933
:102EA000884202D309208F4908708C480068401C72
:102EB0008A49086008460068000E8DF80800084638
:102EC0000068000C8DF8090008460088000A8DF89B
:102ED0000A00084600788DF80B00042202A9092098
:102EE000FFF7A2F950B906207E490870FFF7E6F80F
:102EF000064632467C497D48FEF7E2F87748AFF255
:102F00000C6102687A480DF03FFD794A01210320E7
:102F1000FEF72CFA03A800214FF448730A46CDE9C6
:102F2000001000E0AAE008460CF059F94FF4805177
:102F3000634801F0AEF8634A02EB04125168614A3B
:102F400002EB04121078FFF71BFE4FF480515C482F
:102F500001F0A1F8A5E0FFE75A4800EB0410407A21
:102F6000032851D101205349087003A800214FF4D0
:102F700048730A46CDE9001008460CF030F9514874
:102F800000EB0410406868B300204E4901EB0411C7
:102F9000486058480068401C564908600846006868
:102FA000000E8DF8080008460068000C8DF8090036
:102FB00008460088000A8DF80A00084600788DF857
:102FC0000B00042202A90120FFF72EF94948AFF2B5
:102FD0000071026846480DF0D7FC454A06210420DE
:102FE000FEF7C4F94FF48051354801F052F83549E5
:102FF00001EB041108780121FFF7F7FD4FF4805130
:103000002F4801F048F84CE02E4800EB0410407ABD
:10301000042829D10120274908702A4901EB04110D
:103020004868FFF77EFB0020264901EB0411486049
:1030300003A800214FF448730A46CDE90010084662
:103040000CF0CDF84FF480511D4801F022F81D49D5
:1030500001EB041108780121FFF7C7FD4FF48051FF
:10306000174801F018F81CE0164800EB0410407AED
:10307000052803D101200F49087012E003A80021A0
:1030800014230A46CDE9001008460CF0A8F80B48B6
:103090000078401C09490870084800786428FFF649
:1030A000BFAE00BF601CC4B2032CFFF67BAE7FBD79
:1030B00031000020590000203A0000205800002074
:1030C000000C01402C2E00200B0000200D000020E1
:1030D000020200202D0000201C000020180000200B
:1030E000EE7000012F00002000A00F085C2E0020D1
:1030F000732E00202000002070B586B00646002503
:103100000020029003900490059035A00068019083
:1031100075783078A12860D1B0781A285DD1A12DBA
:1031200009D1082202A90920FEF7FDFD082102A805
:10313000FEF71EFB51E0A22D09D1082202A90120B1
:10314000FEF7F1FD082102A8FEF712FB45E0A32DD2
:1031500009D1052202A91120FEF7E5FD052102A8EB
:10316000FEF706FB39E0A42D1DD1052202A911208E
:10317000FEF7D9FD9DF80A4024B9052102A8FEF703
:10318000F7FA2AE0032C28DC042000EB840202A9D1
:103190001620FEF7C8FD042000EB8400C1B202A88F
:1031A000FEF7E6FA19E0A52D17D102220D490E48C7
:1031B000FDF77BFF0C4844780078682809D1224647
:1031C00008490948FDF771FF21460748FEF7D0FA84
:1031D00003E0022101A8FEF7CBFA06B070BD0000A3
:1031E0006816000000A00F085C2E00200CB500201F
:1031F000019000906C48006840F480306A49086093
:1032000000BF6948006800F4003000900198401C3D
:103210000190009818B90198B0F5A06FF1D16248FB
:10322000006800F4003010B10120009001E000209F
:1032300000900098012843D15C48006840F01000DD
:103240005A4908600846006820F0030008600846F4
:10325000006840F0020008605348406852494860E6
:103260000846406848600846406840F4806048600E
:103270000846406820F47C1048600846406840F4E6
:10328000E81048600846006840F08070086000BFA1
:103290004548006800F000700028F9D042484068B6
:1032A00020F00300404948600846406840F00200B2
:1032B000486000BF3C48406800F00C000828F9D185
:1032C0000CBD10B5FFF792FF10BD10B53648006871
:1032D00040F001003449086008464068344908401D
:1032E0003149486008460068324908402E49086064
:1032F0000846006820F4802008600846406820F4F2
:10330000FE0048604FF41F008860FFF7DAFF4FF0BF
:1033100000602949086010BD10B50021002000227E
:10332000214B5B6803F00C0121B1042906D0082968
:1033300028D107E0214B224C236027E01F4B204C73
:10334000236023E0184B5B6803F47010164B5B6836
:1033500003F48032022303EB904022B9194B43431C
:10336000174C23600DE0104B5B6803F4003323B16E
:10337000144B4343124C236003E0104B4343104C67
:10338000236003E00D4B0E4C236000BF00BF064BD3
:103390005B68C3F303130C4CE15C094B1B68CB4027
:1033A000074C236010BD00000010024000200240C6
:1033B0000000FFF8FFFFF6FE08ED00E000127A00C3
:1033C0005C00002000093D006000002006488047A6
:1033D00006480047FEE7FEE7FEE7FEE7FEE7FEE7FA
:1033E000FEE7FEE7FEE7FEE7CB320008310100080A
:1033F00031490143314A1160704770B50021002303
:103400000F22C47804B32D4C246804F4E064C4F59E
:10341000E064210AC1F10403CA40447804FA03F1CC
:103420008478144021430901254C0678A15504787D
:1034300004F01F050124AC4005786D11AD0005F1C5
:10344000E025C5F8004109E0047804F01F050124D7
:10345000AC401C4D0678761145F8264070BD1A4ADE
:103460000A400243154B1B1F1A60704739B1134ABB
:10347000121D12680243114B1B1D1A6006E00F4A11
:10348000121D126882430D4B1B1D1A6070470428E1
:1034900008D14FF0E021096941F004014FF0E0222A
:1034A000116107E04FF0E021096921F004014FF0BC
:1034B000E0221161704700000000FA050CED00E009
:1034C00000E400E080E100E080FFFF1F10B5012074
:1034D00001F0A8F8002001F0A5F810BD2A49086005
:1034E00070472949091F08607047274984310860DF
:1034F000704701460020254A10884FF67F42104051
:103500000843224A10807047014600201F4A108855
:103510004FF68072104008431C4A1080704708B56F
:1035200000220092194A2C3A0092009A024400921A
:10353000009A116008BD08B50146002000901348AC
:103540002C3800900098084400900098008808BD2E
:103550000D489C300068C0B270470C4808300088A5
:1035600040F0010009490831088070470648A03042
:103570000068C0B2704705480830008840F002007B
:10358000024908310880704704860D422C6C0040C7
:1035900001460020FE4A106800F038000843106021
:1035A0007047FB49096821F00801F94A116011468A
:1035B0000968014311607047F549096821F010015D
:1035C000F34A116011460968014311607047F148E0
:1035D000EF494860F0484860EE484864EE48486467
:1035E0007047EC48EA494860EB4848607047E94852
:1035F000E7494864E84848647047E548006940F096
:103600008000E34908610846006D40F080000865CD
:103610007047DF48006940F08000DD49086170476D
:10362000DB48006D40F08000D949086570470420F0
:10363000D749C96C01F0010109B101200EE0D4495C
:10364000C96C01F0040109B1022007E0D049C96C3E
:1036500001F0100109B1032000E00420704700B51B
:1036600002460423FFF7E3FF034603E0FFF7DFFF13
:103670000346521E012B01D1002AF7D102B90523BE
:10368000184600BD0420C249C96801F0010109B112
:1036900001200EE0BE49C96801F0040109B1022011
:1036A00007E0BB49C96801F0100109B1032000E03F
:1036B0000420704700B502460423FFF7E3FF0346EA
:1036C00003E0FFF7DFFF0346521E012B01D1002A62
:1036D000F7D102B90523184600BD30B504460425CC
:1036E000AE4884421FD24FF43020FFF7E3FF054677
:1036F000042D37D1A648006940F00200A4490861B2
:1037000008464461006940F0400008614FF43020F1
:10371000FFF7D0FF05469E48006941F6FD7108405D
:103720009B4908611EE04FF43020FFF798FF0546E3
:10373000042D17D19648006D40F0020094490865A9
:1037400008464465006D40F0400008654FF43020A5
:10375000FFF785FF05468E48006D41F6FD71084074
:103760008B490865284630BD10B504244FF430203D
:10377000FFF7A0FF0446042C16D18548006940F0ED
:103780000400834908610846006940F04000086170
:103790004FF43020FFF78EFF04467D48006941F664
:1037A000FB7108407A490861042C16D17848006DF5
:1037B00040F00400764908650846006D40F040007E
:1037C00008654FF43020FFF74AFF04467048006D4B
:1037D00041F6FB7108406E490865204610BD10B5E2
:1037E00004244FF43020FFF765FF0446042C16D163
:1037F0006748006940F004006549086108460069AF
:1038000040F0400008614FF43020FFF753FF0446BA
:103810005F48006941F6FB7108405D490861204638
:1038200010BD10B504244FF43020FFF718FF0446F4
:10383000042C16D15648006D40F004005449086528
:103840000846006D40F0400008654FF43020FFF757
:1038500006FF04464E48006D41F6FB7108404C4996
:103860000865204610BD00B502460423FFF70AFF95
:10387000034603E0FFF706FF0346521E012B01D16A
:10388000002AF7D102B90523184600BD002040499F
:10389000C96901F0020109B1012000E00020704770
:1038A00030B5A5250424FFF7F1FF00B100254FF442
:1038B0003020FFF7D8FF0446042C3AD1354834496C
:1038C0008860354888600846006940F0200008613B
:1038D0000846006940F0400008614FF43020FFF7CF
:1038E000C2FF0446042C1BD12948006941F6DF7150
:1038F0000840274908610846006940F01000086147
:1039000027480580E002FFF7AEFF0446052C10D0E3
:103910001F48006941F6EF7108401D49086108E041
:10392000052C06D01A48006941F6EF710840184985
:103930000861204630BD78B504460D4604260020B7
:1039400000901648801E844236D2F002FFF7B2FE85
:103950000646042E27D10E48006940F001000C49AC
:1039600008612580F002FFF77EFF0646042E1BD17A
:10397000A01C0090280C00990880F002FFF773FF4C
:1039800006460348006941F6FE710840004909E017
:103990000020024023016745AB89EFCDFFFF0708F8
:1039A00000F8FF1F08617DE0F748006941F6FE71ED
:1039B0000840F549086175E0F448844246D14FF467
:1039C0000050FFF777FE0646042E12D1EE4800693C
:1039D00040F00100EC4908612580F002FFF76AFE23
:1039E0000646E948006941F6FE710840E64908616B
:1039F00006E0E548006941F6FE710840E2490861C9
:103A00004FF40050FFF72BFE0646042E16D1DE4879
:103A1000006D40F00100DC490865A01C0090280CF6
:103A200000990880F002FFF71AFE0646D648006D9E
:103A300041F6FE710840D449086533E0D248006D74
:103A400041F6FE710840D04908652BE04FF4005064
:103A5000FFF705FE0646042E24D1CB48006D40F04A
:103A60000100C94908652580F002FFF7F8FD064608
:103A7000042E10D1A01C0090280C00990880F002A0
:103A8000FFF7EDFD0646C048006D41F6FE710840A7
:103A9000BD49086506E0BC48006D41F6FE7108406E
:103AA000B9490865304678BD70B504460D46042610
:103AB000F002FFF7D8FE0646B448401C844214D2F8
:103AC000042E26D1B048006940F00100AE490861DB
:103AD0002580F002FFF7EEFD0646AB48006941F68F
:103AE000FE710840A849086113E0042E11D1A648D0
:103AF000006D40F00100A44908652580F002FFF741
:103B0000AEFD0646A048006D41F6FE7108409E4994
:103B10000865304670BD70B505460E460424E002C7
:103B2000FFF7A1FE0446042C17D1994896498860F6
:103B3000984888600846006940F0100008612E80AF
:103B4000E002FFF790FE0446052C06D08E4800697F
:103B500041F6EF7108408C490861204670BD2DE99F
:103B6000F04304464FF6FF763746B046B14604258B
:103B7000E443E6B2C4F30727C4F307484FEA1469E5
:103B8000E802FFF770FE0546042D3FD180487E49CC
:103B90008860804888600846006940F0100008612D
:103BA000FF2E05D07C480680E802FFF75CFE054644
:103BB000042D08D1FF2F06D07748801C0780E8022B
:103BC000FFF751FE0546042D0AD1B8F1FF0F07D0CB
:103BD0007148001DA0F80080E802FFF744FE05468A
:103BE000042D0AD1B9F1FF0F07D06B48801DA0F852
:103BF0000090E802FFF737FE0546052D06D0624823
:103C0000006941F6EF7108405F4908612846BDE848
:103C1000F08330B5054604244FF43020FFF723FE2F
:103C20000446042C43D15A48574988605948886053
:103C30000846006940F0200008610846006940F02D
:103C4000400008614FF43020FFF70DFE0446042CBD
:103C500024D14D48006941F6DF7108404A490861A6
:103C60000846006940F01000086125B100204A496B
:103C70000839088003E0A5204749083908804FF437
:103C80003020FFF7F0FD0446052C10D03E480069B7
:103C900041F6EF7108403C49086108E0052C06D068
:103CA0003948006941F6DF7108403749086120460C
:103CB00030BDF0B505460E46174604243448324957
:103CC000886034488860E002FFF7CDFD0446042C8C
:103CD00019D12D48006940F010002B49086147F0C8
:103CE000F800304328432C49891F0880E002FFF781
:103CF000BAFD0446052C06D02348006941F6EF7151
:103D00000840214908612046F0BD30B5054604242D
:103D10001F481D4988601F488860E002FFF7A3FD27
:103D20000446042C26D11848006940F010001649BA
:103D3000086145B91848801F008840F008001649FE
:103D4000891F088008E01448801F00884FF6F7712B
:103D500008401149891F08804FF40050FFF783FD88
:103D60000446052C06D00848006941F6EF7108406A
:103D700005490861204630BD0348C0698008704786
:103D80000148006A7047000000200240FEFF07085B
:103D900023016745AB89EFCD08F8FF1F00203549A7
:103DA000096801F0200109B1012000E000207047FE
:103DB00000F0004282B139B12E4A126D20F000436A
:103DC0001A432C4B1A6513E02A4A126D20F0004367
:103DD0009A43284B1A650BE029B1264A126902431F
:103DE000244B1A6104E0234A12698243214B1A6171
:103DF000704701460020012908D11E4AD26902F00D
:103E000001020AB1012013E0002011E001F000429C
:103E10003AB1184AD26C0A400AB1012008E00020E9
:103E200006E0144AD2680A400AB1012000E00020EE
:103E3000704700F0004111B10E49C86401E00D491E
:103E4000C860704704200B49C96801F0010109B13D
:103E500001200EE00749C96801F0040109B1022000
:103E600007E00449C96801F0100109B1032000E02E
:103E7000042070470020024010B50446CC4884421C
:103E800008D10121042000F0B3FB0021042000F040
:103E9000AFFB46E0C748844208D10121082000F06A
:103EA000A7FB0021082000F0A3FB3AE0C2488442AF
:103EB00008D10121102000F09BFB0021102000F010
:103EC00097FB2EE0BD48844208D10121202000F05C
:103ED0008FFB0021202000F08BFB22E0B8488442B9
:103EE00008D10121402000F083FB0021402000F098
:103EF0007FFB16E0B348844208D10121802000F006
:103F000077FB0021802000F073FB0AE0AE4884427A
:103F100007D10121801500F06BFB0021A01500F0F6
:103F200067FB10BD10B50121084600F061FB0021C0
:103F3000012000F05DFB10BD2DE9F0410246002597
:103F40000026002000230024002791F803C00CF075
:103F50000F0591F803C00CF0100CBCF1000F03D05A
:103F600091F802C04CEA050591F800C0BCF1000FC1
:103F700031D0146800202BE04FF0010C0CFA00F354
:103F8000B1F800C00CEA03069E4220D183004FF036
:103F90000F0C0CFA03F7BC4305FA03FC4CEA0404CB
:103FA00091F803C0BCF1280F06D14FF0010C0CFAB8
:103FB00000FCC2F814C00AE091F803C0BCF1480F3D
:103FC00005D14FF0010C0CFA00FCC2F810C0401CE7
:103FD0000828D1D31460B1F800C0BCF1FF0F34DD64
:103FE000546800202EE000F1080C4FF0010808FA98
:103FF0000CF3B1F800C00CEA03069E4221D1830005
:104000004FF00F0C0CFA03F7BC4305FA03FC4CEA23
:10401000040491F803C0BCF1280F05D100F1080C8D
:1040200008FA0CF8C2F8148091F803C0BCF1480FEC
:1040300007D100F1080C4FF0010808FA0CF8C2F89B
:104040001080401C0828CED35460BDE8F0814FF6A4
:10405000FF710180022181700421C1707047024606
:10406000002093680B400BB1012000E00020704756
:104070000146886880B2704702460020D3680B4032
:104080000BB1012000E0002070470146C86880B2F3
:10409000704701617047416170470AB1016100E0FA
:1040A00041617047C16070474FF480320A438261BA
:1040B0008161826182698269704702460020434BB8
:1040C00018684FF68073184040EA021008433F4BCF
:1040D000186070473E49C8617047F0B50A46002332
:1040E00000240021002500F00046B6F1004F02D167
:1040F000364EF16901E0354E7168C0F3034583B275
:1041000000F44016B6F5401F08D121F070612F4E23
:10411000766826F070662D4F7E6012E000F48016FF
:10412000B6F5801F06D1032606FA05F4A14341F037
:10413000706106E0460D360103FA06F6B14341F020
:10414000706122B1460D360103FA06F6314300F0E4
:104150000046B6F1004F02D11C4EF16101E01B4E4A
:104160007160F0BD30B500228B071C0F0F2303FADE
:1041700004F2164B08338C1053F824309343134C3D
:1041800008348D1044F8253023468C1053F8243021
:104190008C07240F00FA04F423430C4C08348D10D0
:1041A00044F8253030BD0A49DC3108607047000012
:1041B00000080140000C01400010014000140140C3
:1041C00000180140001C0140002001400000014097
:1041D000000020420E49086070470D494860704752
:1041E0000B49886070474AF6AA2009490860704761
:1041F0004CF6CC4006490860704701460020044A4E
:10420000D2680A400AB1012000E000207047000097
:104210000030004010B50121080700F0F6F9002138
:104220004FF0805000F0F1F910BD2A490862704744
:1042300028490861704701460020274A106820F08D
:10424000E0000843106070472249A03108607047C1
:1042500010B502460020204B186820F003001043E0
:1042600018601E4B1B6843F004031C4C236001299B
:1042700001D130BF00E020BF184B1B6823F00403BE
:10428000164C236010BD1448006840F00400124929
:1042900008600846006840F0020008600F480068A7
:1042A00040F004000D49086000BF00BF30BF7047F8
:1042B00001460020084A52680A400AB1012000E085
:1042C000002070470449096841EA8001024A1160F0
:1042D0007047000000000E420070004010ED00E04A
:1042E000DF48006840F00100DD490860084640688A
:1042F000DC490840DA49486008460068DA49084065
:10430000D74908600846006820F480200860084605
:10431000406820F4FE0048604FF41F00886070473A
:10432000CF49096821F48031CD4A116011460968EE
:1043300021F480211160B0F5803F03D0B0F5802FCB
:104340000ED106E0C649096841F48031C44A1160C3
:1043500007E0C349096841F4A021C14A116000E0A7
:1043600000BF00BF704710B50146002200230020A7
:104370004A11012A02D1BA4C236806E0022A02D16E
:10438000B74C236A01E0B64C636A01F01F020124B6
:1043900094401C400CB1012000E0002010BD38B555
:1043A000002000900024002500BF3120FFF7DBFF34
:1043B00005460098401C00900098B0F5A06F01D011
:1043C000002DF2D03120FFF7CEFF08B1012400E02C
:1043D0000024204638BD01460020A14A106820F084
:1043E000F80040EAC10010607047A04908607047BB
:1043F000024600209A4B586820F47C1042EA0103E0
:104400001843974B586070479849086670470146B3
:104410000020934A506820F0030008435060704722
:104420008F48406800F00C007047014600208C4A1D
:10443000506820F0F00008435060704701460020AB
:10444000874A506820F4E060084350607047014696
:104450000020834A506820F4605040EAC100506058
:10446000704729B17E4A527A02437D4B5A7204E06A
:104470007B4A527A82437A4B5A7270477B49D831D1
:104480000860704701460020754A506820F440409B
:104490000843506070470021714A20321170704A01
:1044A00082F82010012802D004280AD104E001215A
:1044B0006B4A2032117005E00521694A20321170E3
:1044C00000E000BF00BF7047694908607047644959
:1044D000096A0143624A11627047654944390860BC
:1044E000704730B500210022002400235C4D6D6828
:1044F00005F00C0121B1042905D0082923D105E0DC
:104500005C4D056022E05B4D05601FE0544D6D6819
:1045100005F47012524D6D6805F48034022505EBE8
:1045200092421CB9544D554305600BE04C4D6D68EB
:1045300005F400351DB1504D5543056002E04D4D69
:104540005543056002E04B4D056000BF00BF444D80
:104550006D6805F0F0010909484D6B5C0568DD40A8
:1045600045603F4D6D6805F4E061090A434D6B5CA1
:104570004568DD4085603A4D6D6805F46051C90AB3
:104580003E4D6B5C4568DD40C560354D6D6805F49A
:104590004041890B3A4D6B5CC568B5FBF3F505618D
:1045A00030BD29B12E4A526902432D4B5A6104E0B5
:1045B0002B4A526982432A4B5A61704729B1284AD3
:1045C00092690243264B9A6104E0254A926982432C
:1045D000234B9A61704729B1214AD2690243204B8B
:1045E000DA6104E01E4AD26982431D4BDA617047EA
:1045F00029B11B4AD2680243194BDA6004E0184A19
:10460000D2688243164BDA60704729B1144A1269A6
:104610000243134B1A6104E0114A12698243104BA2
:104620001A61704712494039086070470F49C864E1
:1046300070470B49C87170470948406A40F0807064
:1046400007494862704701460020054A92680A40BF
:104650000AB1012000E000207047014988727047CC
:10466000001002400000FFF8FFFFF6FE000042428B
:104670008004424200127A0000093D0070000020D0
:104680008000002029B1504A128802434E4B1A8004
:1046900004E04D4A128882434B4B1A8070474A48C7
:1046A000001D008840F010004749091D0880704730
:1046B0004548001D00884FF6EF7108404249091D2A
:1046C00008807047002140481C300188001F008886
:1046D00041EA0040704700B50246FFF7E0FF100CCA
:1046E000394918310880091D0A80FFF7E1FF00BD34
:1046F00000B50246FFF7D3FFC2F303403249083149
:104700000880091D0A80FFF7D3FF00BD00B50246EF
:10471000FFF7C5FF100C2C4920310880091D0A80C5
:10472000FFF7C6FF00BD002027491031098809079F
:10473000080B2549143109880843704700BF2248F7
:10474000001D008800F020000028F8D070471E48A7
:10475000001D00884FF6F77108401B49091D0880AD
:1047600000BF1948001D008800F008000028F8D09C
:10477000704701460020144A121D12880A400AB1EF
:10478000012000E0002070470F49091D098881437E
:104790000D4A121D11807047014600200A4A121D61
:1047A00012880A40D0B2084A12880A4012B108B1F1
:1047B000012000E0002070470349091D098881435A
:1047C000014A121D118070470028004010B50446B0
:1047D000FE48844208D10121C014FFF709FF0021DF
:1047E000E014FFF705FFC4E0B4F1804F08D10121C8
:1047F0000846FFF70AFF00210120FFF706FFB8E097
:10480000F348844208D101210220FFF7FEFE002177
:104810000220FFF7FAFEACE0EE48844208D1012105
:104820000420FFF7F2FE00210420FFF7EEFEA0E0D7
:10483000E948844208D101210820FFF7E6FE002163
:104840000820FFF7E2FE94E0E448844208D1012109
:104850001020FFF7DAFE00211020FFF7D6FE88E0D7
:10486000DF48844208D101212020FFF7CEFE00213D
:104870002020FFF7CAFE7CE0DA48844208D10121FB
:104880004014FFF7B5FE00216014FFF7B1FE70E0A1
:10489000D548844209D10121C804FFF7A9FE0021AF
:1048A0004FF40020FFF7A4FE63E0D048844209D112
:1048B00001210805FFF79CFE00214FF48010FFF74F
:1048C00097FE56E0CA48844209D101214805FFF706
:1048D0008FFE00214FF40010FFF78AFE49E0C54823
:1048E000844208D101214020FFF78FFE00214020A3
:1048F000FFF78BFE3DE0C048844208D101218020B3
:10490000FFF783FE00218020FFF77FFE31E0BB48E8
:10491000844208D101218015FFF777FE0021A01500
:10492000FFF773FE25E0B648844209D1012108044F
:10493000FFF75EFE00214FF48030FFF759FE18E0CC
:10494000B048844209D101214804FFF751FE0021FB
:104950004FF40030FFF74CFE0BE0AB48844208D127
:1049600001218804FFF744FE00214FF48020FFF767
:104970003FFE10BD00220288944B98420ED0994B06
:1049800098420BD0B0F1804F08D0914B984205D09F
:10499000904B984202D0904B984204D14FF68F73BF
:1049A0001A404B881A438D4B984207D08C4B984243
:1049B00004D04FF6FF431A40CB881A4302808B88FD
:1049C00083850B880385814B98420BD0854B984299
:1049D00008D08B4B984205D08A4B984202D08A4B24
:1049E000984201D10B7A038601238382704770B508
:1049F000002400220023058C4FF6FE763540058406
:104A0000028C8388048B4FF68F752C40B51E2C408A
:104A10000D882C43751E2A400D892A434D882A4350
:104A20006A4DA8420BD06F4DA84208D0744DA842E1
:104A300005D0744DA84202D0734DA84213D14FF651
:104A4000F7752A404D892A434FF6FB752A408D8819
:104A50002A434FF6FF652B404FF6FF552B408D89BB
:104A60002B43CD892B4383800483CD8885860284A4
:104A700070BD70B5002400220023058C4FF6EF7640
:104A800035400584028C8388048B48F6FF752C40E2
:104A90004FF6FF452C400D884FF6FF7606EA0525B8
:104AA0002C434FF6DF752A400D8906EA05152A4387
:104AB0004D8806EA05152A43444DA84202D0494DC7
:104AC000A8421DD14FF67F752A404D894FF6FF76DB
:104AD00006EA05152A434FF6BF752A408D8806EA77
:104AE00005152A434FF6FF352B404FF2FF752B403B
:104AF0008D8906EA85052B43CD8906EA85052B437A
:104B000083800483CD880587028470BD70B500243E
:104B100000220023058C4FF6FF6635400584028C89
:104B20008388848B4FF68F752C404FF6FC752C4094
:104B30000D882C434FF6FF552A400D894FF6FF761E
:104B400006EA05252A434D8806EA05252A431F4D16
:104B5000A84202D0234DA8421DD14FF2FF752A4032
:104B60004D894FF6FF7606EA05252A434FF6FF35B5
:104B70002A408D8806EA05252A434EF6FF752B400C
:104B80004DF6FF752B408D8906EA05152B43CD891F
:104B900006EA05152B4383808483CD8885870284AC
:104BA00070BD70B5002200230024058C4EF6FF7600
:104BB00035400584038C8488828B48F6FF752A4033
:104BC0004FF6FF452A400D8820E00000002C0140F0
:104BD0000004004000080040000C004000100040AD
:104BE0000014004000340140004C014000500140DE
:104BF0000054014000180040001C0040002000400C
:104C00000040014000440140004801404FF6FF765B
:104C100006EA05252A434DF6FF752B400D8906EA65
:104C200005352B434D8806EA05352B43FA4DA8423E
:104C300002D0FA4DA84208D14BF6FF752C408D8961
:104C40004FF6FF7606EA85152C4384808283CD8853
:104C5000A0F84050038470BD828B4FF2FF331A409E
:104C60008283828B4FF6FF7303EA01231A43828308
:104C70007047F0B50C461546002200210026078C2F
:104C80004EF6FF7C07EA0C070784828B018C4FF6F7
:104C9000FF7707EA043640F6FF473A404FF6FF77C2
:104CA00007EA05273A434FF6FF7707EA03373A4307
:104CB000D94FB8420ED0D94FB8420BD0B0F1804F87
:104CC00008D0D74FB84205D0D64FB84202D0D64F01
:104CD000B84206D14DF6FF77394046F48057394344
:104CE00005E047F6FF57394044F480573943828343
:104CF0000184F0BD828B4FF6F3731A408283828B5E
:104D00000A4382837047F0B50C4615460022002105
:104D10000026078C4FF6FF6C07EA0C070784828B8E
:104D2000018C4FF6FF7707EA04264FF60C773A40DE
:104D30004FF6FF7707EA03172F433A43B64FB842BF
:104D40000ED0B64FB8420BD0B0F1804F08D0B44F60
:104D5000B84205D0B34FB84202D0B34FB84206D1E3
:104D60004FF6FF57394046F48077394305E04FF25C
:104D7000FF57394044F48077394382830184F0BD82
:104D8000028B4FF2FF331A400283028B4FF6FF7300
:104D900003EA01231A4302837047F0B50C46154617
:104DA000002200210026078C4FF6EF7C07EA0C0753
:104DB0000784028B018C4FF6FF7707EA041640F652
:104DC000FF473A404FF6FF7707EA03373A434FF67B
:104DD000FF7707EA05273A438F4FB8420ED08F4F2F
:104DE000B8420BD0B0F1804F08D08D4FB84205D0FB
:104DF0008C4FB84202D08C4FB84206D14FF6DF77C5
:104E0000394046F01007394305E04FF65F773940E7
:104E100044F01007394302830184F0BD028B4FF642
:104E2000F3731A400283028B0A4302837047F0B582
:104E30000C46154600220021068C4FF6FE773E40B8
:104E40000684028B018C4FF60C7632407E1C06EAFB
:104E500003162E433243704EB0420ED06F4EB04216
:104E60000BD0B0F1804F08D06D4EB04205D06D4EE2
:104E7000B04202D06C4EB04206D14FF6FD763140C2
:104E800044F00106314305E04FF6F576314044F039
:104E90000106314302830184F0BD70B505460C461E
:104EA0005D4885420ED05D4885420BD0B5F1804FFC
:104EB00008D05B48854205D05A48854202D05A48FE
:104EC000854200D100E000BF208850B92389A28824
:104ED00061882846FFF7ABFFE1882846FFF79EFF71
:104EE00025E0208804280AD12389A28861882846E1
:104EF000FFF753FFE1882846FFF742FF17E02088BD
:104F000008280AD12389A28861882846FFF7FBFE7A
:104F1000E1882846FFF7EEFE09E02389A288618830
:104F20002846FFF7A6FEE1882846FFF795FE70BDEC
:104F30002DE9F04105460C4600260127608808B996
:104F4000022600E00026A088012801D1022700E007
:104F500001272088A0B92389A28861882846FFF705
:104F600066FFE1882846FFF759FF23893A46314614
:104F70002846FFF712FFE1882846FFF701FF13E0FC
:104F80002389A28861882846FFF707FFE188284621
:104F9000FFF7F6FE23893A4631462846FFF747FFDA
:104FA000E1882846FFF73AFFBDE8F0810A884B8880
:104FB0001A438B881A43CB881A430B891A434B89AF
:104FC0001A438B891A43A0F8442070474FF6FF71AB
:104FD000818000210180C1804180017270470021E1
:104FE000018041808180C180018141818181C181B5
:104FF0007047002101804180012181800021C18012
:10500000018170470021018041808180C180018140
:105010004181818170470000002C01400034014033
:105020000004004000080040000C004021B102884C
:1050300042F00102028004E002884FF6FE731A403B
:105040000280704731B1B0F8442042F40042A0F829
:10505000442005E0B0F84420C2F30E02A0F844203A
:1050600070471AB183890B43838102E083898B43A4
:10507000838170478182704741EA0203A0F848307B
:1050800070471AB183890B43838102E083898B4384
:105090008381704701894FF6F87211400181704792
:1050A0000A46002101894FF68F731940114301818F
:1050B000704730B504460D4629462046FFF7F0FFFD
:1050C000208940F00700208130BD2DE9F0410446E1
:1050D0000D4616461F46602D06D13B46012231463D
:1050E0002046FFF75AFE05E03B46012231462046A6
:1050F000FFF79DFE29462046FFF7D2FF208940F0AA
:1051000007002081BDE8F08130B50C4600210189FF
:10511000C9B24FF6FF7505EA032515432543294318
:10512000018130BD2DE9F04105460E4617469846EF
:10513000002443463A4631462846FFF7E5FF2C89CE
:105140004FF6F870044044F007044FF68F700440A7
:1051500044F070042C81BDE8F081F0B504460D46A2
:1051600016461F463B46324629462046FFF7CCFFEF
:10517000208940F480402081F0BD01858282704703
:105180000A46002101884FF68F73194011430180B0
:105190007047F0B50C4615461E460021002200233C
:1051A0000189028B038C4FF6F877394021434FF683
:1051B000FC473A4040F201173A434FF6DD773B4057
:1051C0004FF6FF7707EA06172F433B43018102831F
:1051D0000384F0BD0A460021018B4FF68F731940FE
:1051E0001143018370470A460021018B48F6FF7383
:1051F00019404FF6FF7303EA0223194301837047F6
:105200000A460021818B4FF68F7319401143818329
:1052100070470A460021818B48F6FF7319404FF60C
:10522000FF7303EA022319438183704721B1028887
:1052300042F08002028004E002884FF67F731A4039
:105240000280704721B1828842F00402828004E02B
:1052500082884FF6FB731A408280704721B18288A2
:1052600042F00802828004E082884FF6F7731A4009
:105270008280704721B1828842F00102828004E07E
:1052800082884FF6FE731A40828070470A460021DA
:10529000018B4FF6F77319401143018370470A469B
:1052A0000021018B4FF2FF7319404FF6FF7303EAA1
:1052B00002231943018370470A460021818B4FF670
:1052C000F77319401143818370470A460021818B8F
:1052D0004FF2FF7319404FF6FF7303EA022319439D
:1052E000818370470A460021018B4FF6FB731940FA
:1052F0001143018370470A460021018B4FF6FF33AB
:1053000019404FF6FF7303EA0223194301837047E4
:105310000A460021818B4FF6FB73194011438183AC
:1053200070470A460021818B4FF6FF3319404FF634
:10533000FF7303EA02231943818370470A46002161
:10534000018B4FF67F7319401143018370470A4662
:105350000021018BC1F30E014FF6FF7303EA022314
:105360001943018370470A460021818B4FF67F73F2
:1053700019401143818370470A460021818BC1F394
:105380000E014FF6FF7303EA02231943818370472E
:105390000A460021018C4FF6FD7319401143018428
:1053A00070470A460021018C4FF6F77319401143EC
:1053B000018470470A460021018C4FF6DF731940C3
:1053C0004FF6FF7303EA02131943018470470A463C
:1053D0000021018C4FF67F7319404FF6FF7303EAEB
:1053E00002131943018470470A460021018C4FF6CD
:1053F000FF5319404FF6FF7303EA02231943018458
:1054000070470A460021018C4FF2FF7319404FF696
:10541000FF7303EA02231943018470470A460021FF
:10542000018C4DF6FF7319404FF6FF7303EA023308
:1054300019430184704730B5002301248C40A3B286
:10544000048C9C430484048C02FA01F5ADB22C4315
:10545000048430BD30B5002304248C40A3B2048CF6
:105460009C430484048C02FA01F5ADB22C430484FD
:1054700030BD70B5034600200024184618300125C1
:105480008D40ACB21D8CA5431D8409B1082909D1FA
:1054900000EB6100056825F070050560056815439F
:1054A00005600EE00D1FC5F34E052844056825F480
:1054B000E045056005684FF6FF7606EA02263543AB
:1054C000056070BD21B1028842F00202028004E052
:1054D00002884FF6FD731A400280704721B102889E
:1054E00042F00402028004E002884FF6FB731A4087
:1054F0000280704721B1828842F08002828004E0FD
:1055000082884FF67F731A408280704702884FF678
:10551000F7731A40028002880A430280704782882B
:105520004FF68F731A40828082880A4382807047C8
:1055300002894FF6F8731A40028102890A430281F8
:10554000704702894FF67F731A40028102890A432D
:1055500002817047818470478185704781867047DA
:105560000187704781877047A0F840107047028814
:105570004FF6FF431A40028002880A4302807047B8
:105580000146888E70470146088F70470146888F14
:1055900070470146B1F8400070470146888C70475B
:1055A0000146088D704702460020138A0B400BB15C
:1055B000012000E000207047CA430282704730B5E6
:1055C0000246002000230024158A05EA010395897C
:1055D00005EA010413B10CB1012000E0002030BD48
:1055E000CA4302827047000010B50446FB4884425B
:1055F00009D101218803FEF7FBFF00214FF4804011
:10560000FEF7F6FF32E0F648844209D10121480452
:10561000FEF7FBFF00214FF40030FEF7F6FF25E018
:10562000F048844209D101218804FEF7EEFF0021F1
:105630004FF48020FEF7E9FF18E0EB48844209D1DF
:105640000121C804FEF7E1FF00214FF40020FEF71E
:10565000DCFF0BE0E548844208D101210805FEF794
:10566000D4FF00214FF48010FEF7CFFF10BD2DE9CD
:10567000F04786B005460E460024A24600BFA1466C
:105680000027B08900B100BF2F462C8A4CF6FF706E
:105690000440F08804432C82AC894EF6F310044099
:1056A000B08831890843718908430443AC81AC8ACE
:1056B0004FF6FF400440B0890443AC8201A8FEF7D6
:1056C00010FFC648874202D1DDF810A001E0DDF8E6
:1056D0000CA0A88900F4004040B10AEBCA0000EB1E
:1056E0000A1031684900B0FBF1F807E00AEBCA0084
:1056F00000EB0A1031688900B0FBF1F86420B8FBB8
:10570000F0F004012009642101FB1089A88900F44C
:10571000004040B1322000EBC900B0FBF1F000F0D6
:105720000700044308E0322000EB09106421B0FBBD
:10573000F1F000F00F0004432C8106B0BDE8F087C3
:105740004FF41651016000218180C18001810C213C
:10575000418100218181704710B502460020108AE6
:105760004FF2FF0318400B884C8823438C88234357
:10577000CC8823431843108210BD00210180418052
:105780008180C180704721B1828942F400528281B8
:1057900004E082894DF6FF731A4082817047F0B5AC
:1057A0000346002400260025002040F66A17B9426F
:1057B00000D100BF1846C1F3421401F01F060127B3
:1057C00007FA06F5012C01D10C3004E0022C01D1BE
:1057D000103000E014301AB107682F43076002E070
:1057E0000768AF430760F0BD1AB1838A0B43838219
:1057F00002E0838A8B4383827047028A4FF6F073FC
:105800001A400282028A0A430282704782894FF25A
:10581000FF731A40828182890A438281704721B1D5
:10582000828942F00202828104E082894FF6FD7390
:105830001A4082817047028A4FF6DF731A40028253
:10584000028A0A430282704721B1028A42F48042EE
:10585000028204E0028A4BF6FF731A40028270470C
:10586000C1F308028280704701468888C0F30800AF
:105870007047818941F0010181817047028BD2B26A
:105880000283028B42EA012202837047028B02F4F8
:105890007F420283028B0A430283704721B1828ACE
:1058A00042F02002828204E0828A4FF6DF731A40BF
:1058B0008282704721B1828A42F01002828204E023
:1058C000828A4FF6EF731A408282704721B1828A32
:1058D00042F00802828204E0828A4FF6F7731A408F
:1058E0008282704721B1828942F40042828103E0C2
:1058F0008289C2F30E028281704721B1828A42F40A
:105900000062828204E0828A4FF2FF731A40828230
:105910007047828A4FF6FB731A408282828A0A435A
:105920008282704721B1828A42F00202828204E0C0
:10593000828A4FF6FD731A40828270470246002029
:10594000B1F5007F00D100BF13880B400BB10120DF
:1059500000E00020704701F40072B2F5007F00D132
:1059600000BFCA430280704770B50246002400237E
:105970000025002040F66A16B14200D100BFC1F3F5
:10598000421501F01F03012606FA03F3012D02D18F
:105990009689334006E0022D02D1168A334001E099
:1059A000968A33400C12012606FA04F41688344015
:1059B00013B10CB1012000E0002070BD10B5002231
:1059C000002340F66A14A14200D100BF0A1201244C
:1059D0009440A3B2DC43048010BD000000380140B5
:1059E0000044004000480040004C0040005000408F
:1059F00000B585B06846FEF774FD019805B000BD9E
:105A000010B5FFF7F5FF04461748006840F08070B6
:105A1000154908600020154948600846006840F0B4
:105A200001000860204600F02AF910BD0F494868BF
:105A300070472DE9F0478246FFF7DAFF4FF0000983
:105A400080460B4A0023404649460AF06BFC064656
:105A500032460B46504600210AF064FC04460D46CF
:105A600020462946BDE8F087FCED00E0001000E08C
:105A700040420F0010B5FB480088401EF9490880DD
:105A800008460088A0B9FFF7D1FFF749086008462B
:105A90000068F6490968441AF5480068A04201D236
:105AA000F3480460F3480068A04201D2F148046062
:105AB00010BD10B5F0480088401CEF490880E94847
:105AC000008818B9FFF7B2FFE8490860E548008888
:105AD000401CE449088010BD10B5002400BF00BF81
