:020000040800F2
:10000000E0B80020C5320008DD060008DF06000861
:10001000E3060008E7060008EB0600080000000001
:10002000000000000000000000000000EF060008D3
:10003000F1060008000000001F080108F500010893
:10004000DF320008DF320008DF320008DF3200084C
:10005000DF320008DF320008DF320008DF3200083C
:10006000DF320008DF320008DF320008DF3200082C
:10007000DF320008DF320008DF320008DF3200081C
:10008000DF320008DF320008DF320008DF3200080C
:10009000DF320008DF320008DF320008DF320008FC
:1000A000DF320008DF320008DF320008DF320008EC
:1000B0008D080008DF320008DF320008DF32000858
:1000C000DF320008DF320008DF320008DF320008CC
:1000D000DF320008F30600084D0700086F0700082C
:1000E000DF320008DF320008DF320008DF320008AC
:1000F000DF320008DF320008DF320008DF3200089C
:10010000DF320008DF320008DF320008DF3200088B
:10011000C90700082B080008DF320008DF3200089A
:10012000DF320008DF320008DF320008DF3200086B
:10013000DFF80CD010F01AFB00480047C304000899
:10014000E0B800200EB500BF97E0FE48007810B977
:1001500002F0A8FD2EE0FB480078FF282AD0F948DD
:100160000078092813D1F8A20121022001F070F8CB
:10017000F4480278F8A1F94810F082FBF74A072109
:10018000022001F065F8FF20EE49087012E0F4A2A9
:100190000121032001F05CF8EA480278EEA1EF4863
:1001A00010F06EFBED4A0721032001F051F8FF200B
:1001B000E4490870EE480078002814DDED48007826
:1001C000A12807D1EB484078A12803D1E9488078DD
:1001D000A12802D0E74802F00BFF0020E549087093
:1001E0004870E349087002A800210A230A46CDE9B5
:1001F000001008460EF06FFFDF48007800283CD062
:100200000020DD490870DD48DD4908600020DD4937
:100210000860DD490870DD4800210180817002F02E
:1002200053F9D7480068000ED9490870D4480068CF
:10023000000C4870D2480088000A8870D0480078C6
:10024000C8700422092001F061FFCE480068000E4A
:10025000CF490870CB480068000C4870C948008836
:10026000000A8870C7480078C8700422012001F095
:100270004DFF0221C74801F0EDF966E70EB500BF5A
:1002800023E0C5480078401CC34908700846007840
:10029000032805D103220821012001F009F80BE011
:1002A000BD480078062807D10020BB4908702022ED
:1002B0000821012000F0FCFF02A80021FA230A46D1
:1002C000CDE9001008460EF006FFDAE70EB500BFD4
:1002D0003CE000F089FC02F0BAF9B048007802284E
:1002E00013DAAE480078401CAC4908700846007824
:1002F000022805DB4FF40051A94803F048FE04E052
:100300004FF40051A64803F040FEA64800780228AA
:1003100013DAA4480078401CA24908700846007807
:10032000022805DB4FF480419D4803F030FE04E0D5
:100330004FF480419A4803F028FE02A80021C82308
:100340000A46CDE9001008460EF0C5FEC1E730B5FB
:100350008BB00446002500BF05F092FB0AA80CF004
:10036000F3F805F02BFC0AAA0121084607F05BFE12
:1003700000BF00BF00BF05F01BFD054600BF05F034
:1003800014FB00BF88480078401C87490870084665
:100390000078012801D107F057FD00BF05F0E6FA0B
:1003A00000BF284605F008FD00BF00BF00BF01F0F8
:1003B000ABFF0AA8032100220592CDE9062108908F
:1003C00010464FF400713322784BCDE90132CDE96C
:1003D000031006200023AFF20B1275A1009077489E
:1003E0000CF0E9FC0AA8032100220592CDE90621C0
:1003F000089010464FF400713322714BCDE9013261
:10040000CDE9031005200023AFF28F126DA10090FB
:100410006F480CF0D0FC0AA8032100220592CDE918
:100420000621089010464FF480616622694BCDE9A1
:100430000132CDE9031004200023AFF2F72266A1B8
:10044000009068480CF0B7FC0AA967480EF0C0F9A4
:1004500000BF00BF00BF05F0ABFC054600BF05F0C4
:10046000A4FA00BF50480078401E4F490870084663
:100470000078D0B907F02AFD5C48008800280BDD21
:1004800000BF05F073FA00BF284605F095FC00BFD9
:1004900000BF08F0BBF911E000BF05F067FA00BF2C
:1004A000284605F089FC00BF08E000BF05F05EFAB1
:1004B00000BF284605F080FC00BF00BF00BF0BB0A6
:1004C00030BD8AB0002400F045FF00F067FE00F068
:1004D000A7FB00F091FB00F05FFA00F0B5FB01F024
:1004E000FEFA0FF013FE01F0B9FB4FF4A06002F02A
:1004F000FBFE00F0CCFB01200FF061FE00203C4928
:100500000870C8200FF05BFEFF21072000F05AFBA7
:1005100003220821012000F0CBFE00F065FB09A8B2
:1005200007F048FB00BF00BF00BF05F041FC0446D8
:1005300000BF05F03AFA00BF1B480078401C1A497A
:10054000087057E02F000020D6CEBEDF4944CAB95C
:10055000D3C3CDEA00000000253264003100002042
:10056000D6CEBEDFB4E6B4A2B3F6B4ED0000000010
:100570000A000020DA010020390000208A70000102
:1005800018000020200000201C0000208402002011
:1005900035000020330000202E0000202C00002019
:1005A000000C01402D00002018010020400C00200C
:1005B0006C656430207461736B000000780B002060
:1005C000081500206C656431207461736B000000B5
:1005D00040140020D01D00204B65795F7461736B5F
:1005E00000000000081D0020B0020020DC000020F8
:1005F0003A00002008460078012801D107F024FCC9
:1006000000BF05F0B3F900BF204605F0D5FB00BFE1
:1006100000BF00BF09A8032100220592CDE90621F1
:10062000089010464FF400713322254BCDE901327A
:10063000CDE9031003200023AFF2ED2221A10090A9
:1006400023480CF0B8FB00BF00BF00BF05F0B0FBB3
:10065000044600BF05F0A9F900BF1E480078401EFF
:100660001C49087008460078D0B907F02FFC1A48DA
:10067000008800280BDD00BF05F078F900BF204698
:1006800005F09AFB00BF00BF08F0C0F811E000BF02
:1006900005F06CF900BF204605F08EFB00BF08E0B6
:1006A00000BF05F063F900BF204605F085FB00BFE1
:1006B00000BF00BF09A807F060FD00BFFEE770475C
:1006C000780300207374617274207461736B00008E
:1006D000B002002018010020DC000020704700BF9D
:1006E000FEE700BFFEE700BFFEE700BFFEE7704782
:1006F000704710B5002440F225518E4805F0B0F83F
:10070000F8B18C4805F02CF8C4B28B4800780A2860
:1007100002DB0020894908708948007888B9874839
:1007200001780078401C854A107086484454104671
:100730000078282802DD28201146087000207E4914
:10074000087040217B4805F082F810BD10B50024E8
:1007500040F225517C4805F083F818B17A4804F03E
:10076000FFFFC4B24021784805F071F810BD10B504
:10077000002440F22551754805F072F8F8B173482D
:1007800004F0EEFFC4B2724800780A2802DB0020B1
:10079000704908707048007888B96E480178007810
:1007A000401C6C4A10706D484454104600781E2856
:1007B00002DD1E20114608700020654908704021A6
:1007C000624805F044F810BD10B5002440F22551F0
:1007D000634805F045F818B3614804F0C1FFC4B29E
:1007E000604800780A2802DB00205F4908705F48F3
:1007F0000078A8B95C4801780078401C5A4A10700B
:100800005B484454104600785A49087010460078F6
:10081000142802DD14201146087000205149087088
:1008200040214F4805F013F810BD10B5002440F2E8
:100830002551514805F014F818B34F4804F090FFC3
:10084000C4B24E4800780A2802DB00204C490870E8
:100850004C480078A8B94A4801780078401C484ABA
:1008600010704948445410460078484908701046B2
:100870000078142802DD14201146087000203F493A
:10088000087040213C4804F0E2FF10BD10B5012182
:10089000880704F010FE00284BD0384800780A285A
:1008A0000BDA36480078401C344908700846007856
:1008B0000A2802DB0120334908702A4800780A28F8
:1008C0000BDA28480078401C264908700846007852
:1008D0000A2802DB012025490870174800780A28F9
:1008E0000BDA15480078401C134908700846007858
:1008F0000A2802DB01201249087025480078C82820
:1009000013DA23480078401C214908700846007813
:10091000C82805DB4FF480711E4803F038FB04E063
:100920004FF480711B4803F030FB0121880704F06D
:10093000D3FD10BD00380140040000203B00002022
:100940000A000020DA010020004400400048004076
:10095000010000203D000020070000208001002051
:10096000004C0040060000203E0000200C0000204B
:10097000160200200E00002000500040050000205C
:100980003F0000200B000020020200200D0000208C
:100990003A0000200010014008B50121082003F0B2
:1009A00089FD4FF49C70ADF8000003208DF8020023
:1009B00048208DF803006946774803F039FA012191
:1009C000092003F077FD0121744803F002FB08BD04
:1009D00010B500240821704803F0BDFA08B90120C1
:1009E00000E0002004434FF480716B4803F0B3FA39
:1009F00008B1002000E0022004431021664803F003
:100A0000AAFA08B1002000E0102004432021624827
:100A100003F0A1FA08B1002000E0202004432046A2
:100A200010BD00215E480078002815DD5C48007884
:100A3000401E5B4A10705B485B4A1278815C5A48E2
:100A40000078401C584A107010460078052801DBD9
:100A500000201070084670470020FCE710B50446DF
:100A60004F480078052801DBFFF7DBFF4C48007892
:100A7000401C4B4908704D4801780078401C4B4A97
:100A800010704848445410460078052802DB0020C6
:100A90001146087010BD70B5002600240025FFF730
:100AA00097FF064642480078304041490978714036
:100AB000404A1278114040EA01043E49097884EA2C
:100AC00001003C49097800EA01053A48007884426F
:100AD00025D124B338480078401E374908700846AD
:100AE0000078F8B924F0100030B13449097844EAAC
:100AF0000100FFF7B3FF0CE004F010003049097863
:100B0000884330B12D4909782143C943C8B2FFF762
:100B1000A5FF0F20284908702948047002E01E2014
:100B200025490870A5B12648007825EA000060B183
:100B300005F04000214909784840204908700978AB
:100B400045EA0100FFF78AFF02E000201C49087017
:100B5000174806701748047070BD10B5FFF761FFA5
:100B600010BD00200E490978002901DD012100E0B7
:100B700000210846704710B500BFFFF7EEFF0028C0
:100B8000FBD110BD002006490978002901DD0121B3
:100B900000E0002108467047000C014000023000D0
:100BA0004E000020470000204D0000204C00002097
:100BB00042000020430000204600002044000020A6
:100BC0004500002070B505460C4645F2555003F02F
:100BD0007DFA284603F07DFA204603F07DFA03F003
:100BE0007EFA03F081FA70BD10B503F078FA10BDFB
:100BF000C2684A40C260704708B50121082003F06E
:100C000059FC4FF4E040ADF8000003208DF80200DD
:100C100010208DF803006946F24803F009F908BD79
:100C200008B50121102003F045FC4FF48070ADF8A9
:100C3000000003208DF8020010208DF803006946A3
:100C4000E94803F0F5F808BD08B50121042003F0D8
:100C500031FC4FF41840ADF8000003208DF802007D
:100C600010208DF803006946E04803F0E1F84FF4E6
:100C70000061DE4803F089F94FF48051DB4803F04E
:100C800084F94FF40041D94803F081F908BD1FB53C
:100C90004FF0804003F016FD0121084603F017FCD9
:100CA0004FF47A70ADF808004720ADF8040000203A
:100CB000ADF80A00ADF806008DF80C0001A94FF060
:100CC000804003F0D3FD0121880704F0F1FB0122ED
:100CD0001146900704F041F90121880704F022F938
:100CE0004FF4A06002F000FB1C208DF800000220F1
:100CF0008DF8010000208DF8020001208DF803001E
:100D0000684602F0F6FA1FBD08B50121102003F075
:100D1000D1FB4FF44060ADF8000003208DF80200D5
:100D200014208DF803006946AF4803F081F808BD30
:100D300010B502460B4600241078AA2801D00020E6
:100D400010BD002105E010782044C4B2521C481C9C
:100D5000C1B2581E8842F6DC1078A04201D00020B3
:100D6000EEE70120ECE73CB50246002401940023A5
:100D70004C781470002005E0841C0C5D0DF80040D8
:100D8000441CE0B20428F7DB009C54608B79CC79DA
:100D900004EB03249481002006E000F108040C5DBC
:100DA0000DF80040441CE0B20428F6DB009C94607F
:100DB0000B7B4C7B04EB0324D4813CBD1FB581B07D
:100DC000079C0021AA2222709DF804206270029ADA
:100DD0000092002005E01DF80030821CA354421C44
:100DE000D0B20428F7DBBDF810201212A271BDF8B2
:100DF0001020E271039A0092002006E01DF80030F6
:100E000000F10802A354421CD0B20428F6DBBDF85E
:100E1000122012122273BDF812206273002004E027
:100E2000225C0A44D1B2421CD0B20E28F8DBA17376
:100E300005B010BD18B50246002005E0431CCB5C90
:100E40000DF80030431CD8B20428F7DB009B136078
:100E5000002005E0431DCB5C0DF80030431CD8B2E8
:100E60000428F7DB009B5360002006E000F1090333
:100E7000CB5C0DF80030431CD8B20428F6DB009B95
:100E80009360002006E000F10D03CB5C0DF800300C
:100E9000431CD8B20428F6DB009BD360002006E098
:100EA00000F11103CB5C0DF80030431CD8B20428CC
:100EB000F6DB009B1361002006E000F11503CB5C1C
:100EC0000DF80030431CD8B20428F6DB009B5361B8
:100ED00018BD0FB418B50A9C0021AA222270039AEB
:100EE0000092002004E01DF80030421CA354D0B250
:100EF0000428F8DB049A0092002005E01DF8003079
:100F0000421DA354421CD0B20428F7DB059A00927C
:100F1000002006E01DF8003000F10902A354421C35
:100F2000D0B20428F6DB069A0092002006E01DF8F5
:100F3000003000F10D02A354421CD0B20428F6DBAD
:100F4000079A0092002006E01DF8003000F111021F
:100F5000A354421CD0B20428F6DB089A0092002069
:100F600006E01DF8003000F11502A354421CD0B277
:100F70000428F6DB002004E0225C0A44D1B2421CC3
:100F8000D0B21928F8DB617618BC5DF814FB10B5F7
:100F90000346002003E00C5C1C54441CA0B29042A9
:100FA000F9DB10BD2DE9F04105460E46174602F06B
:100FB0008AFA352002F0B9FE0D4802F00AFB00243F
:100FC0000AE02A5D2B195B7802EB032291B23019FB
:100FD00002F0E6FCA01C84B2BC42F2DB02F089FA0B
:100FE000BDE8F081000C0140001001400008014004
:100FF00000A00F0800E0401E0028FCD1704707E069
:1010000042F63D0100BF0A00A1F10101FBD1401EE3
:101010000028F5D1704708B50121202003F04AFAD5
:101020000121402003F046FA4CF2B300ADF8000075
:1010300010208DF8030003208DF802006946BD489A
:1010400002F0F6FE4FF4F060ADF8000010208DF8CD
:10105000030003208DF802006946B74802F0E8FE5D
:1010600008BD10B5B34C0C34216843F6FC74214024
:10107000034603F0030441EA8431C3F381042143AE
:10108000AD4C0C3422684FF67F04224003F0F0048C
:1010900042EAC402A74C0C342160A74C0C342260F5
:1010A00010BD10B504461020A2491431086020205C
:1010B00008608020091F08604FF41670FFF79AFF40
:1010C0002046FFF7CEFF4FF41670FFF793FF802006
:1010D00098491431086010BD10B504461020954998
:1010E000103108602020091D08608020091F086059
:1010F0004FF41670FFF77EFF2046FFF7B2FF4FF464
:101100001670FFF777FF80208A491431086010BD00
:1011100070B500251DE0002417E03420FFF7C1FF63
:1011200005F18001C8B2FFF7BCFF04F18001C8B22D
:10113000FFF7B7FF3020FFF7B4FF0020FFF7CCFF29
:101140000020FFF7C9FF601CC4B2082CE5DB681C57
:10115000C5B2202DDFDB00251DE0002417E0342080
:10116000FFF79FFF05F18001C8B2FFF79AFF04F176
:101170008801C8B2FFF795FF3020FFF792FF0020EB
:10118000FFF7AAFF0020FFF7A7FF601CC4B2082CDE
:10119000E5DB681CC5B2202DDFDB70BD10B5FFF7A5
:1011A0003AFF8020634914310860012063490860D8
:1011B0004FF4FA70FFF723FF01206049091F086010
:1011C0006420FFF71CFF3020FFF76BFF0120FFF7C3
:1011D00011FF3020FFF765FF0120FFF70BFF08200C
:1011E000FFF75FFF0120FFF705FF0120FFF759FF21
:1011F0004FF44870FFF7FEFE0620FFF752FF052070
:10120000FFF7F8FE0C20FFF74CFF0520FFF7F2FE7A
:101210006420FFF7F4FEFFF77BFF0A20FFF7EFFEE5
:1012200010BD70B506460C4620460FF03AF8C5B220
:101230003020FFF736FF3046FFF733FF05E014F8A4
:10124000010BFFF749FF681EC5B2002DF7D170BD35
:101250002DE9F04107460C4616460320FFF721FF13
:10126000012F06D0022F08D0032F0AD0042F10D14F
:101270000BE004F17F00C5B20CE004F18F00C5B2B1
:1012800008E004F18700C5B204E004F19700C5B29C
:1012900000E000BF00BF2846FFF703FF03E016F899
:1012A000010BFFF719FF30780028F8D1BDE8F08175
:1012B0002DE9F04106460C4617460320FFF7F1FEE4
:1012C000012E06D0022E08D0032E0AD0042E10D1F3
:1012D0000BE004F17F00C5B20CE004F18F00C5B251
:1012E00008E004F18700C5B204E004F19700C5B23C
:1012F00000E000BF00BF2846FFF7D3FE3846FFF7E7
:10130000EBFEBDE8F08110B50DA201210846FFF704
:101310009FFF0BA201210220FFF79AFF08A20121E3
:101320000320FFF795FF06A201210420FFF790FF9D
:1013300010BD0000001401400018014014080140D5
:10134000202020202020202020202020202020209D
:101350000000000000B587B00121042003F0AAF8C6
:101360000121082003F0A6F80121102003F0A2F8C3
:101370000121202003F09EF80121880303F09AF850
:101380000121480403F0A3F80121880403F09FF829
:101390000121C80403F09BF80121080503F097F828
:1013A0004020ADF8180003208DF81A0010208DF8A9
:1013B0001B0006A9F84802F03BFD4FF40070ADF8A1
:1013C000180003208DF81A0018208DF81B0006A9BC
:1013D000F24802F02DFD4FF48060ADF818000420B3
:1013E0008DF81B0006A9ED4802F022FD4FF4806045
:1013F000ADF8180003208DF81A0018208DF81B0096
:1014000006A9E74802F014FD4FF40060ADF818009B
:1014100004208DF81B0006A9E14802F009FD4FF4F5
:101420008060ADF8180003208DF81A0018208DF8A0
:101430001B0006A9D84802F0FBFC4FF40060ADF891
:10144000180004208DF81B0006A9D34802F0F0FC18
:101450004FF48050ADF8180003208DF81A001820C2
:101460008DF81B0006A9CC4802F0E2FC0420ADF880
:1014700018008DF81B0006A9CA4802F0D9FCCA481A
:1014800004F02EF84FF4E13002900020ADF80C008B
:10149000ADF80E00ADF81000ADF814000C20ADF85A
:1014A000120002A9C04804F05EF8012240F2255162
:1014B000BD4804F0F0F80121BB4804F0E0F84021F9
:1014C000B94804F0C4F94021B74804F0B3F9B7486B
:1014D00004F006F84FF4165002900020ADF80C000E
:1014E000ADF80E00ADF81000ADF814000C20ADF80A
:1014F000120002A9AD4804F036F8012240F225514D
:10150000AA4804F0C8F80121A84804F0B8F840211E
:10151000A64804F09CF94021A44804F08BF9A448A3
:1015200003F0DEFF4FF4E13002900020ADF80C0034
:10153000ADF80E00ADF81000ADF814000C20ADF8B9
:10154000120002A99A4804F00EF8012240F2255137
:10155000974804F0A0F80121954804F090F8402144
:10156000934804F074F94021914804F063F99148DC
:1015700003F0B6FF4FF4E13002900020ADF80C000C
:10158000ADF80E00ADF81000ADF814000C20ADF869
:10159000120002A9874803F0E6FF012240F225511C
:1015A000844804F078F80121824804F068F840216A
:1015B000804804F04CF940217E4804F03BF9252096
:1015C0008DF8040000208DF805008DF8060001203C
:1015D0008DF8070001A801F08CFE27208DF804008B
:1015E00000208DF8050002208DF8060001208DF8FE
:1015F000070001A801F07DFE34208DF804000020D2
:101600008DF8050003208DF8060001208DF80700F5
:1016100001A801F06EFE35208DF8040000208DF841
:10162000050004208DF8060001208DF8070001A8B0
:1016300001F05FFE07B000BD10B5044621465A48D0
:1016400004F08AF800BF4021574804F0F3F801285D
:10165000F9D110BD38B504460D4640214E4802F080
:1016600094FC4021504804F0E5F80020009004E08C
:101670009DF80000401CC0B200909DF800001428A6
:10168000F6DB0020009009E09DF80010605CFFF799
:10169000D3FF9DF80000401CC0B200909DF80000F0
:1016A000A842F1DB0020009004E09DF80000401CFF
:1016B000C0B200909DF800001428F6DB40213648A7
:1016C00002F065FC38BD38B504460D46402132486D
:1016D00002F05BFC4021344804F0ACF8002000909C
:1016E00004E09DF80000401CC0B200909DF800008E
:1016F0001428F6DB0020009009E09DF80010605CE3
:10170000FFF79AFF9DF80000401CC0B200909DF8C2
:101710000000A842F1DB0020009004E09DF80000EA
:10172000401CC0B200909DF800001428F6DB402158
:10173000194802F02CFC38BD10B5044621461C485F
:1017400004F00AF800BF4021194804F073F801289A
:10175000F9D110BD70B505460E464021144804F07D
:1017600069F8002404E0285DFFF7E6FF601CC4B2BE
:10177000B442F8DB70BD70B505460E4640210C48FA
:1017800004F058F8002404E0285DFFF7D5FF601C42
:10179000C4B2B442F8DB70BD001001400008014043
:1017A000000C014000140140003801400048004096
:1017B000004C00400050004010B504462146264829
:1017C00003F0CAFF00BF4021234804F033F801288A
:1017D000F9D110BD70B505460E4640211E4804F0F3
:1017E00029F8002404E0285DFFF7E6FF601CC4B27E
:1017F000B442F8DB70BD10B504462146174803F02B
:10180000ABFF00BF4021154804F014F80128F9D1BE
:1018100010BD70B505460E464021104804F00AF888
:10182000002404E0285DFFF7E6FF601CC4B2B44268
:10183000F8DB70BD70B505460E464021074803F041
:10184000F9FF002404E0285DFFF7D5FF601CC4B257
:10185000B442F8DB70BD000000480040005000407A
:1018600008B50121202002F025FE4FF4C060ADF83C
:10187000000010208DF8030003208DF80200694657
:10188000F34802F0D5FA4FF4C061F14802F07DFB55
:1018900008BD10B5EE48001D006820F0F000EC49CE
:1018A000091D08600846006840F03000086001200B
:1018B000E8490860E849C1F8A80104200EF054FC8A
:1018C0000020E449086004200EF04EFC0020E249AC
:1018D000C1F8A80110BD10B5DD48001D006820F05A
:1018E000F000DB49091D08600846006840F0300040
:1018F00008600020D749091D0860D749C1F8A40134
:1019000004200EF031FC0120D249091D0860D249A3
:10191000C1F8A40104200EF027FC10BD10B500246E
:10192000CB48001D006820F0F000C949091D08607F
:101930000846006840F0800008600120C549086042
:101940000EF012FC0120C449C1F8A8010EF00CFCF5
:1019500007E0601CC4B2FA2C03DDFFF7BCFF0120D6
:1019600010BDBC48803800680028F2D1B949091D73
:10197000086000BFF4E710B50020B649091D0860F3
:10198000B348001D006820F0F000B149091D08604F
:101990000846006840F0300008600020AE49C1F8F9
:1019A000A40102200EF0E0FB0120AA49091D0860F5
:1019B00002200EF0D9FB0020A749C1F8A80110BDF4
:1019C00010B50020A349091D0860A148001D00684A
:1019D00020F0F0009E49091D08600846006840F0AC
:1019E0003000086001209C49C1F8A40102200EF0DB
:1019F000BBFB01209749091D086002200EF0B4FBD3
:101A000000209549C1F8A80110BD70B50446904862
:101A1000001D006820F0F0008D49091D086008468F
:101A2000006840F03000086000208A49091D086005
:101A300000251DE0E00918B101208649086002E098
:101A40000020844908606006040E02200EF08CFB22
:101A500001208049091D086002200EF085FB00204E
:101A60007D49C1F8A80102200EF07EFB681CC5B2BA
:101A7000082DDFDB70BD70B5054600247448001DDD
:101A8000006820F0F0007249091D086008460068EF
:101A900040F080000860002617E000206D49091D15
:101AA000086002200EF060FB01206B49C1F8A8011C
:101AB0006006040E67488038006808B1601CC4B234
:101AC00001200EF051FB701CC6B2082EE5DB15B9E3
:101AD000FFF776FF01E0FFF74EFF204670BD10B51F
:101AE000FFF7BEFE10BD70B504460026FFF7D1FE1D
:101AF000A020FFF78AFFFFF711FF2012FFF785FFF5
:101B0000FFF70CFF2546E11704EB11610912A4EB66
:101B10000121C8B2FFF779FFFFF700FFFFF7B9FE19
:101B2000A120FFF772FFFFF7F9FE0020FFF7A3FFE8
:101B30000646FFF7D0FE304670BD70B504460E462F
:101B4000FFF7A7FEA020FFF760FFFFF7E7FE2012D8
:101B5000FFF75BFFFFF7E2FE2546E11704EB11619B
:101B60000912A4EB0121C8B2FFF74FFFFFF7D6FE21
:101B70003046FFF74AFFFFF7D1FEFFF7ACFE0A2021
:101B80000EF01DFB70BD2DE9F04105460E461746CF
:101B9000002409E0E20026FA02F2D1B22A1990B23A
:101BA000FFF7CBFF601CC4B2BC42F3DBBDE8F081A1
:101BB0002DE9F04107460C460026002509E03602D3
:101BC0003919491B491E88B2FFF78DFF0644681C6E
:101BD000C5B2A542F3DB3046BDE8F08110B5FF2069
:101BE000FFF781FF0446552C01D1002010BD55217F
:101BF000FF20FFF7A2FFFF20FFF775FF0446552CDB
:101C000001D10020F2E70120F0E770B506460C464E
:101C1000154608E03046721C96B2FFF764FF04F8E0
:101C2000010B681E85B2002DF4D170BD70B505465C
:101C30000C46164606E021782846FFF77EFF681C12
:101C400085B2641C3000A6F101018EB2F3D170BDE3
:101C500000140140A48122420080224210B50420D9
:101C600001F0E5FB45F65A21884237D001214FF0BB
:101C7000C05002F02CFC012002F053FA01F0A2FB4C
:101C8000012002F084FB002401E0601C84B241F2D8
:101C900088308442F9DB00BF412002F0E0FA0028DE
:101CA000FAD04FF4807002F08EFB012002F091FB1D
:101CB00002F0C9FC02F0BEFC0121084602F05EFC05
:101CC00002F0B8FC47F6FF7002F08EFC02F0B2FCA6
:101CD00045F65A21042001F09EFB1BE001214FF044
:101CE000C05002F0F4FB002401E0601C84B241F219
:101CF00088308442F9DB7B2002F0B1FA10B97A20F7
:101D000002F0ADFA02F014FC0121084602F036FCA4
:101D100002F090FC10BD10B504469148C06940F037
:101D200000608F49C8618F48006840F480708D4919
:101D30000860012002F0F5F902F07CFC02F02BFCB7
:101D4000204602F044FC02F075FC02F02DFC10BDB0
:101D50002DE9F04F04460D4616469846DDE9097C0C
:101D60004FF000090022A4F5FA6084B220464FEA41
:101D7000E47A04EB9A7A4FEAAA0A40F26D1B0BFB55
:101D800004AA1FFA8AF94FEAE47A04EB9A7A4FEA36
:101D9000AA0AA4EB8A0ABAF1000F01D1724B00E043
:101DA000724B002104E0585C104482B2481CC1B25E
:101DB000681E8842F7DC701E104482B209EB0200F4
:101DC00000EB4000C0004FF4616A00FB0AF0C8EB72
:101DD000481ACAEB082A00EB0A10C7EB071A00EBF7
:101DE0008A006044BDE8F08FFCB504460A465F4DAA
:101DF0005F4BB2FBF3F39EB25D4BB2FBF3F703FB19
:101E000017205C4BB0FBF3F303EB860303F5FA6397
:101E10009BB2ADF80030574BB0FBF3F703FB170054
:101E2000BDF80030DF1703EB9777BF10A3EB8707F0
:101E300007B94D4D01238DF8023000211EE06B5C87
:101E400003EB4303DB00C3EB4317C7EB0323B0EB08
:101E5000031F10D99DF802305B1CDBB28DF80230F5
:101E60006B5C03EB4303DB00C3EB4317C7EB0323BC
:101E7000A0EB031000E003E04B1CD9B20C29DEDB21
:101E800000BF3D4BB0FBF3F35B1CDBB28DF80330BE
:101E9000394BB0FBF3F703FB17004FF46163B0FB62
:101EA000F3F3DBB28DF804304FF46163B0FBF3F76A
:101EB00003FB17003C23B0FBF3F3DBB28DF80530D6
:101EC0003C23B0FBF3F703FB17038DF80630009BB0
:101ED0002360019B6360FCBD10B586B002F06EFB11
:101EE0000446214602A8FFF77FFFDDE90201CDE9A4
:101EF00004019DF816009DF815109DF814209DF81A
:101F00001330CDE90032CDE902109DF81230BDF852
:101F100010201AA121480EF0B3FC204806B010BDD5
:101F200070B5044602F04AFB054629462046FFF7F5
:101F30005BFF70BD2DE9FC4704460D4616461F4663
:101F4000DDE90A8A3B46324629462046CDE9008A29
:101F5000FFF7FEFE8146FFF7DEFEBDE8FC870000CE
:101F60000010024000700040641101087011010867
:101F7000801F86078033E1018051010025303464E1
:101F80002D253032642D25303264202025303264F6
:101F90003A253032643A253032640000022E0020A7
:101FA00010B5002068240346401CFE4AD454FE4A63
:101FB00012780B2303EB8202D4B20346401CF94A89
:101FC000D454FA4A1268130E0446401CF54A1355BD
:101FD000F64A1268C2F307440346401CF14AD4543F
:101FE000F24A1288C2F307240346401CED4AD45437
:101FF000EE4A14780346401CEA4AD454EC4A12686C
:10200000130E0446401CE74A1355E94A1268C2F30E
:1020100007440246431CD8B2E24B9C54E44A12885F
:10202000C2F307240246431CD8B2DE4B9C54E04A5C
:1020300014780246431CD8B2DA4B9C54DA4A14781E
:102040000246431CD8B2D74B9C54002126E0D94A03
:1020500052F82120120E0346441CE0B2D14CE25447
:10206000D44A52F82120C2F307440246431CD8B296
:10207000CC4B9C54CF4A32F82120C2F307240246AD
:10208000431CD8B2C74B9C54CA4A12F8214002469E
:10209000431CD8B2C34B9C544A1CD1B2C24A1278DA
:1020A0009142D4DB10BD30B503460C46002100BF81
:1020B00007E0585C655CA84201D0002030BD481C98
:1020C000C1B29142F5DB0120F8E710B502460024C9
:1020D000042901DA002010BD1078A52803D1481E7C
:1020E000105C5A2801D00020F5E7012304E0D05C01
:1020F0002044C4B2581CC3B2881E9842F7DC105C5E
:10210000A04201D00020E6E70120E4E72DE9F043FA
:102110008BB081460F4615464FF000080026002080
:102120000790089009900A900390049005900690FB
:10213000A5223146761C07A842543146761C4554E8
:10214000002407E03A5D3146701CC6B207A842542D
:10215000601CC4B2AC42F5DB012406E007A8005DB8
:10216000404400F0FF08601CC4B2A81C8442F5DBA8
:102170003046711CCEB207A901F800805A2088555C
:10218000002428E02A1D07A94846FFF74FFD02A8B2
:10219000002132230A46CDE9001008460CF09BFFCF
:1021A0002A1D03A94846FFF730FD281DC2B203A926
:1021B00007A8FFF778FF18B101200BB0BDE8F08346
:1021C00002A8002132230A46CDE9001008460CF08F
:1021D00082FF601CC4B2032CD4DB0020EDE770B595
:1021E00088B00020049005900690079000260025F6
:1021F00019E0052204A91120FFF707FD052104A815
:10220000FFF763FF20B19DF81200674908700CE0EA
:1022100003A8002132230A46CDE9001008460CF03D
:102220005AFF681CC5B2052DE3DB00BF052D05DB99
:10223000012061490870002008B070BD5A4800783C
:1022400000285FDD58480078042101EB8000C6B209
:1022500000254DE0324604A91620FFF7D6FC314692
:1022600004A8FFF732FFB8B3002430E0022000EBEF
:10227000840004A9085C4F4941F82400032000EBC6
:10228000840004A9085C4B4951F8241000EB01209C
:10229000484941F82400042000EB840004A9085CAC
:1022A000444951F8241000EB0120424941F8240030
:1022B000052000EB840004A9085C3E4951F8241075
:1022C00000EB01203B4941F82400601CC4B23648B1
:1022D00000788442CADB0DE0FFE703A80021322327
:1022E0000A46CDE9001008460CF0F5FE681CC5B2A0
:1022F000052DAFDB00BF052D04DB02202E49087041
:10230000002099E7012097E730B591B000253421EE
:1023100004A80DF0BBFF002424E02848005D2849F4
:1023200001EB041108700020254901EB04114860FD
:10233000234901EB041108729620214901EB041195
:10234000887200201E4901EB0411C87205201C4947
:1023500001EB041108730020194901EB04114873C3
:10236000601CC4B2032CD8DB00243FE0082204A97F
:102370000120FFF74AFC082104A8FFF7A6FE50B38E
:102380009DF812000A4908609DF81300096800EBE7
:102390000120074908609DF81400096800EB01203E
:1023A00003490FE05C2E00201C00002018000020D4
:1023B00020000020840200202F0000205000002078
:1023C0002C2E002008609DF81500096800EB012004
:1023D000FE4908600CE003A8002132230A46CDE93B
:1023E000001008460CF077FE601CC4B2052CBDDB63
:1023F00000BFF648F6A10268F6480EF041FAF54A29
:1024000006210420FEF724FF00243CE0082204A952
:102410000920FFF7FAFB082104A8FFF756FE38B39E
:102420009DF81200EC4908609DF81300096800EB64
:102430000120E94908609DF81400096800EB0120BB
:10244000E54908609DF81500096800EB0120E249A4
:10245000086008460068E149884205D3DE48006804
:10246000DE496431884202D30920DD4908700CE05E
:1024700003A8002132230A46CDE9001008460CF0DB
:102480002AFE601CC4B2052CC0DB00BF052C02DB99
:102490000320D3490870FFF7A2FED2A20221012037
:1024A000FEF7D6FED2A207210120FEF7D1FECA48D0
:1024B000D0A10268C7480EF0E3F9C64A0121032003
:1024C000FEF7C6FE11B030BD30B587B000200390D6
:1024D000049005900090019002900122C7491120BC
:1024E000FFF714FE60B90420BD490870FFF758FDDE
:1024F00004462246C249C348FEF754FD07B030BD2A
:10250000002413E0C04850F824000690002509E09C
:10251000C5F1030006A9085C05EB840103AA505429
:10252000681CC5B2042DF3DB601CC4B2B34800784C
:102530008442E7DBB14800788006020E03A916202A
:10254000FFF7E4FD50B90520A5490870FFF728FD05
:1025500004462246AA49AB48FEF724FD00BFCDE75A
:1025600000201EE0A84A52F8202002B117E00146E0
:102570000FE0A54A52F821204AB1A34A52F821207F
:10258000A14B43F82020002243F8212005E04A1CFB
:10259000D1B29A4A12789142EBDB00BF00BF421CD5
:1025A000D0B2964A12789042DCDB0021002007E08E
:1025B000954A52F820200AB14A1CD1B2421CD0B22E
:1025C0008E4A12789042F3DB8C4A1170704770B5D6
:1025D00000258A480078002818DD002412E08A4887
:1025E00050F8240060B1884850F8245000208649F3
:1025F00041F82400FFF7B4FFFFF766FF284670BDDF
:10260000601CC4B27D4800788442E8DB0020F6E715
:1026100070B5044604B970BD002507E07A4850F84B
:102620002500A04200D1F6E7681CC5B273480078C7
:102630008542F3DB714801780078401C6F4A1070C6
:10264000714840F82140FFF73FFF00BFE3E770B556
:102650000025002428E06D4800EB0410007808B342
:102660006A4800EB0410807A96281BDA674800EB72
:102670000410807A401C654901EB04118872012521
:10268000624800EB0410807A96280BDB5F4901EB6F
:1026900004114868FFF7BCFF00205C4901EB0411FE
:1026A000486003E0601CC4B2032CD4DB00BF002DE3
:1026B0000FDD57480078E8B901205549087055A248
:1026C0000221FEF7C5FD56A207210120FEF7C0FD3D
:1026D00010E04F48007801280CD100204C490870C8
:1026E00040A202210120FEF7B3FD41A207210120F3
:1026F000FEF7AEFD70BD10B500220021B1E0434BE6
:1027000003EB01131B7803B1A9E0084690E03F4BAF
:1027100003EB00131B78002B56D03C4B03EB00134C
:102720001B783A4C04EB01142370384B03EB001375
:102730005B68364C04EB01146360344B03EB00130D
:102740001B7A324C04EB01142372304B03EB001361
:102750009B7A2E4C04EB0114A3722C4B03EB001359
:10276000DB7A2A4C04EB0114E372284B03EB0013D1
:102770001B7B264C04EB01142373244B03EB001347
:102780005B7B224C04EB0114637300231F4C04EBAE
:10279000001423701D4C04EB001463601B4C04EB0D
:1027A000001423729623194C04EB0014A372002327
:1027B000164C04EB0014E3720523144C04EB0014D4
:1027C00023730023114C2DE030E000002000002096
:1027D00025366400732E0020180000208A70000146
:1027E0002F000020BEDBD1F4B5E7D7D300000000F6
:1027F000CFD0000049443A25303858001C00002052
:1028000000A00F085C2E0020840200202C2E002047
:1028100055000020C7EBCEF0B9D8BBFA000000008D
:10282000C3A6000004EB0014637306E0431CD8B297
:10283000F84B1B789842FFF66AAF00BF00200021DA
:1028400008E0F54B03EB01131B780BB1431CD8B226
:102850004B1CD9B20329F4DBEE4B187000BF4B1CA4
:10286000D9B2EC4B1B789942FFF649AF10BD30B599
:102870000546002428E0E84800EB04100078A84250
:1028800020D10020E44901EB04110870E24901EB7A
:1028900004114860E04901EB041108729620DE49FA
:1028A00001EB041188720020DB4901EB0411C872AE
:1028B0000520D94901EB041108730020D64901EB2A
:1028C00004114873601CC4B2D24800788442D2DB41
:1028D000FFF711FF30BD30B50246002500245578C2
:1028E0001078682801D0002030BD281D884201D012
:1028F0000020F9E7481E105C162801D00020F3E7FD
:10290000002305E0981C105C2044C4B2581CC3B2DC
:10291000AB42F7DB881E105CA04201D00020E3E749
:102920009078E1E770B586B0BCA103C9CDE9040198
:1029300000264AE01421BB480DF0A8FC0020BA494B
:102940000870052104A8FEF775FF002539E0B64898
:10295000007800282ADDB5480178B248FFF7BBFFB0
:10296000A1281BD1AF484079B1490870002406E086
:10297000AC48C0782044AF490855601CC4B2AC488C
:1029800000788442F4DB0020A7490870A74801784A
:10299000A4480DF07BFC012006B070BD0020A249C8
:1029A0000870A24801789F480DF070FC03A8002130
:1029B0000F230A46CDE9001008460CF08CFB681C7A
:1029C000C5B2462DC3DB701CC6B2032EB2DB00209D
:1029D000E2E72DE9F04788B08046894616464FF079
:1029E000000A0024202168460DF050FCF01CC7B2FC
:1029F00068222146641C0DF801202146641C0DF854
:102A0000017040222146641C0DF801202146641CFF
:102A10000DF8018000222146641C0DF801200025DC
:102A200008E019F805202046611CCCB20DF8002002
:102A3000681CC5B2B542F4DB002507E0A81C1DF8F0
:102A40000000504400F0FF0A681CC5B2BD42F5DB2F
:102A50002046611CCCB20DF800A016200DF8040031
:102A6000381DC1B26846FEF7E5FE08B0BDE8F08744
:102A70001CB5044670A103C9CDE9000106226946D0
:102A80002046FFF7A6FF1CBDFEB507460C460026F4
:102A9000002000900190029068208DF80000A22094
:102AA0008DF8010005208DF80200F2208DF803005A
:102AB000200E8DF80400200C8DF80500200A8DF8FA
:102AC0000600E0B28DF80700002505E01DF80500BE
:102AD0003044C6B2681CC5B2082DF7DB8DF808601B
:102AE00016208DF809000A2269463846FFF771FF63
:102AF000FEBDFEB505460E46002700200090019061
:102B0000029005B9FEBD68208DF80000A2208DF866
:102B1000010002208DF80200F4208DF803008DF8EA
:102B20000460002405E01DF804003844C7B2601CAE
:102B3000C4B2052CF7DB8DF8057016208DF8060061
:102B4000072269462846FFF744FF00BFDAE70FB5C2
:102B5000002015E0304901EB001109789DF80020B4
:102B600091420BD19DF809102B4A02EB00125172D1
:102B70009DF80A10284A02EB00129172411CC8B25B
:102B80000328E7DB0FBD2DE9FF4F04460F46002564
:102B9000A846A946AA46AB462078682801D0BDE8D9
:102BA000FF8FA578681DB84200D0F8E7002605E041
:102BB000A05D404400F0FF08701CC6B2E81C8642CD
:102BC000F6DB205C404500D0E9E7281D205C162894
:102BD00000D0E4E7607900B9E1E794F8019094F857
:102BE00003A060798DF80000B9F1A20F58D1002040
:102BF00013490870AAF1F100062848D2DFE800F076
:102C000003222930394001208DF8090096208DF8E3
:102C10000A0040E0540000202C2E002068012121F1
:102C200016000000020200200B0000200D00002012
:102C30001700002011000020680201F15C1600005E
:102C40002C00002002208DF8090000208DF80A00D9
:102C500021E001208DF8090000208DF80A001AE01B
:102C600003208DF8090096208DF80A0000200190BD
:102C700011E004208DF8090096208DF80A000AE082
:102C800005208DF8090096208DF80A0003E0002049
:102C90008DF8000000BF00BF9DE80F00FFF757FF51
:102CA00000BF7CE77FB5002600247DE1C0480078A6
:102CB000012815D10020BE490870BE4805780AE0F9
:102CC00003A8002114230A46CDE9001008460CF0A1
:102CD00002FA681CC5B2B74800786430A842EFDC3D
:102CE0004FF48051B44801F050F9B44901EB04119C
:102CF0000878FFF7BDFE4FF48051AF4801F047F967
:102D00000020AE4901EB04114872AD490870AD488E
:102D10000178AD480DF0BAFA0020A64908703BE1F1
:102D2000A748007801287DD10020A8490870A5484F
:102D30000178A548FFF727FF0020A1490870A148A6
:102D40000178A1480DF0A2FA9C4800EB0410407AEB
:102D5000012802D19649087023E1984800EB04103D
:102D6000407A022878D1012091490870934800EBFD
:102D70000410406800284DD195480078002806DDF1
:102D8000FFF725FC8D4901EB0411486042E09148B2
:102D900000688A4901EB041148608E4800688E493A
:102DA000884202D309208D4908708A480068401C77
:102DB0008849086008460068000E8DF8080008463B
:102DC0000068000C8DF8090008460088000A8DF89C
:102DD0000A00084600788DF80B00042202A9092099
:102DE000FFF794F950B906207C490870FFF7D8F82E
:102DF000064632467A497B48FEF7D4F87548AFF26A
:102E00000C61026878480DF03BFD774A01210320F0
:102E1000FEF71EFA03A800214FF448730A46CDE9D5
:102E2000001000E0AAE008460CF055F94FF480517C
:102E3000614801F0AAF8614A02EB041251685F4A46
:102E400002EB04121078FFF71FFE4FF480515A482E
:102E500001F09DF8A5E0FFE7584800EB0410407A28
:102E6000032851D101205249087003A800214FF4D2
:102E700048730A46CDE9001008460CF02CF94F487B
:102E800000EB0410406868B300204C4901EB0411CA
:102E9000486056480068401C54490860084600686D
:102EA000000E8DF8080008460068000C8DF8090037
:102EB00008460088000A8DF80A00084600788DF858
:102EC0000B00042202A90120FFF720F94748AFF2C6
:102ED0000071026844480DF0D3FC434A06210420E7
:102EE000FEF7B6F94FF48051334801F04EF83349FC
:102EF00001EB041108780121FFF7FBFD4FF480512D
:102F00002D4801F044F84CE02C4800EB0410407AC6
:102F1000042829D1012026490870284901EB041111
:102F20004868FFF775FB0020244901EB0411486055
:102F300003A800214FF448730A46CDE90010084663
:102F40000CF0C9F84FF480511B4801F01EF81B49E2
:102F500001EB041108780121FFF7CBFD4FF48051FC
:102F6000154801F014F81CE0144800EB0410407AF6
:102F7000052803D101200E49087012E003A80021A2
:102F800014230A46CDE9001008460CF0A4F80948BD
:102F90000078401C07490870064800786428FFF64E
:102FA000BFAE00BF601CC4B2032CFFF67FAE7FBD76
:102FB0005900002058000020000C01402C2E002059
:102FC0000B0000200D000020020200202D00002038
:102FD0001C00002018000020EE7000012F000020CF
:102FE00000A00F085C2E0020732E0020200000207F
:102FF00070B586B00646002500200290039004902C
:10300000059035A00068019075783078A12860D1CE
:10301000B0781A285DD1A12D09D1082202A9092072
:10302000FEF7F3FD082102A8FEF714FB51E0A22DE4
:1030300009D1082202A90120FEF7E7FD082102A814
:10304000FEF708FB45E0A32D09D1052202A91120B6
:10305000FEF7DBFD052102A8FEF7FCFA39E0A42DFE
:103060001DD1052202A91120FEF7CFFD9DF80A40CF
:1030700024B9052102A8FEF7EDFA2AE0032C28DC8A
:10308000042000EB840202A91620FEF7BEFD0420F6
:1030900000EB8400C1B202A8FEF7DCFA19E0A52D0E
:1030A00017D102220D490E48FDF771FF0C484478F4
:1030B0000078682809D1224608490948FDF767FFCA
:1030C00021460748FEF7C6FA03E0022101A8FEF7F1
:1030D000C1FA06B070BD00006816000000A00F081D
:1030E0005C2E00200CB50020019000906C48006818
:1030F00040F480306A49086000BF6948006800F405
:10310000003000900198401C0190009818B9019877
:10311000B0F5A06FF1D16248006800F4003010B142
:103120000120009001E0002000900098012843D188
:103130005C48006840F010005A4908600846006882
:1031400020F0030008600846006840F002000860B4
:1031500053484068524948600846406848600846FD
:10316000406840F4806048600846406820F47C1065
:1031700048600846406840F4E81048600846006827
:1031800040F08070086000BF4548006800F00070A3
:103190000028F9D04248406820F0030040494860C8
:1031A0000846406840F00200486000BF3C48406864
:1031B00000F00C000828F9D10CBD10B5FFF792FF04
:1031C00010BD10B53648006840F001003449086071
:1031D000084640683449084031494860084600685C
:1031E000324908402E4908600846006820F48020D3
:1031F00008600846406820F4FE0048604FF41F0055
:103200008860FFF7DAFF4FF000602949086010BDC1
:1032100010B5002100200022214B5B6803F00C0157
:1032200021B1042906D0082928D107E0214B224CDE
:10323000236027E01F4B204C236023E0184B5B6882
:1032400003F47010164B5B6803F48032022303EB27
:10325000904022B9194B4343174C23600DE0104BAB
:103260005B6803F4003323B1144B4343124C2360D7
:1032700003E0104B4343104C236003E00D4B0E4C16
:10328000236000BF00BF064B5B68C3F303130C4C05
:10329000E15C094B1B68CB40074C236010BD00006C
:1032A00000100240002002400000FFF8FFFFF6FE81
:1032B00008ED00E000127A005C00002000093D00EB
:1032C000600000200648804706480047FEE7FEE70A
:1032D000FEE7FEE7FEE7FEE7FEE7FEE7FEE7FEE7C6
:1032E000C33100083101000831490143314A1160FE
:1032F000704770B5002100230F22C47804B32D4C11
:10330000246804F4E064C4F5E064210AC1F1040314
:10331000CA40447804FA03F1847814402143090137
:10332000254C0678A155047804F01F050124AC4013
:1033300005786D11AD0005F1E025C5F8004109E003
:10334000047804F01F050124AC401C4D067876116A
:1033500045F8264070BD1A4A0A400243154B1B1F10
:103360001A60704739B1134A121D12680243114B9B
:103370001B1D1A6006E00F4A121D126882430D4B96
:103380001B1D1A607047042808D14FF0E02109691D
:1033900041F004014FF0E022116107E04FF0E0211D
:1033A000096921F004014FF0E0221161704700002B
:1033B0000000FA050CED00E000E400E080E100E030
:1033C00080FFFF1F10B5012001F0A8F8002001F0D8
:1033D000A5F810BD2A49086070472949091F0860EF
:1033E0007047274984310860704701460020254A0C
:1033F00010884FF67F4210400843224A10807047E1
:10340000014600201F4A10884FF680721040084382
:103410001C4A1080704708B500220092194A2C3AC5
:103420000092009A02440092009A116008BD08B50B
:1034300001460020009013482C3800900098084462
:1034400000900098008808BD0D489C300068C0B20C
:1034500070470C480830008840F0010009490831E5
:10346000088070470648A0300068C0B27047054821
:103470000830008840F00200024908310880704797
:1034800004860D422C6C004001460020FE4A106864
:1034900000F03800084310607047FB49096821F0CC
:1034A0000801F94A1160114609680143116070472B
:1034B000F549096821F01001F34A116011460968C5
:1034C000014311607047F148EF494860F048486097
:1034D000EE484864EE4848647047EC48EA49486062
:1034E000EB4848607047E948E7494864E848486461
:1034F0007047E548006940F08000E34908610846EC
:10350000006D40F0800008657047DF48006940F0BA
:103510008000DD4908617047DB48006D40F08000A5
:10352000D949086570470420D749C96C01F00101E9
:1035300009B101200EE0D449C96C01F0040109B1C0
:10354000022007E0D049C96C01F0100109B1032045
:1035500000E00420704700B502460423FFF7E3FFB4
:10356000034603E0FFF7DFFF0346521E012B01D1A4
:10357000002AF7D102B90523184600BD0420C2492C
:10358000C96801F0010109B101200EE0BE49C96816
:1035900001F0040109B1022007E0BB49C96801F04C
:1035A000100109B1032000E00420704700B5024675
:1035B0000423FFF7E3FF034603E0FFF7DFFF0346C3
:1035C000521E012B01D1002AF7D102B9052318465A
:1035D00000BD30B504460425AE4884421FD24FF4E6
:1035E0003020FFF7E3FF0546042D37D1A6480069D8
:1035F00040F00200A449086108464461006940F0B7
:10360000400008614FF43020FFF7D0FF05469E4888
:10361000006941F6FD7108409B4908611EE04FF4C6
:103620003020FFF798FF0546042D17D19648006D0E
:1036300040F002009449086508464465006D40F07A
:10364000400008654FF43020FFF785FF05468E489F
:10365000006D41F6FD7108408B490865284630BD74
:1036600010B504244FF43020FFF7A0FF0446042CCB
:1036700016D18548006940F0040083490861084676
:10368000006940F0400008614FF43020FFF78EFFE2
:1036900004467D48006941F6FB7108407A4908619B
:1036A000042C16D17848006D40F004007649086576
:1036B0000846006D40F0400008654FF43020FFF7E9
:1036C0004AFF04467048006D41F6FB7108406E49A0
:1036D0000865204610BD10B504244FF43020FFF7D4
:1036E00065FF0446042C16D16748006940F00400C9
:1036F000654908610846006940F0400008614FF4E0
:103700003020FFF753FF04465F48006941F6FB7124
:1037100008405D490861204610BD10B504244FF4EF
:103720003020FFF718FF0446042C16D15648006DD0
:1037300040F00400544908650846006D40F0400020
:1037400008654FF43020FFF706FF04464E48006D31
:1037500041F6FB7108404C490865204610BD00B594
:1037600002460423FFF70AFF034603E0FFF706FFC4
:103770000346521E012B01D1002AF7D102B90523BD
:10378000184600BD00204049C96901F0020109B195
:10379000012000E00020704730B5A5250424FFF784
:1037A000F1FF00B100254FF43020FFF7D8FF0446A9
:1037B000042C3AD135483449886035488860084639
:1037C000006940F0200008610846006940F04000B0
:1037D00008614FF43020FFF7C2FF0446042C1BD1D0
:1037E0002948006941F6DF71084027490861084609
:1037F000006940F01000086127480580E002FFF7EB
:10380000AEFF0446052C10D01F48006941F6EF7149
:1038100008401D49086108E0052C06D01A480069D7
:1038200041F6EF71084018490861204630BD78B56F
:1038300004460D460426002000901648801E84424F
:1038400036D2F002FFF7B2FE0646042E27D10E480C
:10385000006940F001000C4908612580F002FFF783
:103860007EFF0646042E1BD1A01C0090280C009958
:103870000880F002FFF773FF06460348006941F62F
:10388000FE710840004909E000200240230167451D
:10389000AB89EFCDFFFF070800F8FF1F08617DE04F
:1038A000F748006941F6FE710840F549086175E086
:1038B000F448844246D14FF40050FFF777FE0646A5
:1038C000042E12D1EE48006940F00100EC49086175
:1038D0002580F002FFF76AFE0646E948006941F6D6
:1038E000FE710840E649086106E0E548006941F6D6
:1038F000FE710840E24908614FF40050FFF72BFECB
:103900000646042E16D1DE48006D40F00100DC4969
:103910000865A01C0090280C00990880F002FFF7B1
:103920001AFE0646D648006D41F6FE710840D4499D
:10393000086533E0D248006D41F6FE710840D04979
:1039400008652BE04FF40050FFF705FE0646042EF5
:1039500024D1CB48006D40F00100C949086525809D
:10396000F002FFF7F8FD0646042E10D1A01C0090CF
:10397000280C00990880F002FFF7EDFD0646C048CC
:10398000006D41F6FE710840BD49086506E0BC487F
:10399000006D41F6FE710840B9490865304678BDB2
:1039A00070B504460D460426F002FFF7D8FE064621
:1039B000B448401C844214D2042E26D1B048006979
:1039C00040F00100AE4908612580F002FFF7EEFDEE
:1039D0000646AB48006941F6FE710840A8490861F7
:1039E00013E0042E11D1A648006D40F00100A44957
:1039F00008652580F002FFF7AEFD0646A048006D81
:103A000041F6FE7108409E490865304670BD70B5AC
:103A100005460E460424E002FFF7A1FE0446042CEE
:103A200017D1994896498860984888600846006987
:103A300040F0100008612E80E002FFF790FE04467F
:103A4000052C06D08E48006941F6EF7108408C497C
:103A50000861204670BD2DE9F04304464FF6FF761D
:103A60003746B046B1460425E443E6B2C4F307271F
:103A7000C4F307484FEA1469E802FFF770FE0546F1
:103A8000042D3FD180487E49886080488860084680
:103A9000006940F010000861FF2E05D07C480680C8
:103AA000E802FFF75CFE0546042D08D1FF2F06D083
:103AB0007748801C0780E802FFF751FE0546042D79
:103AC0000AD1B8F1FF0F07D07148001DA0F800809F
:103AD000E802FFF744FE0546042D0AD1B9F1FF0FB5
:103AE00007D06B48801DA0F80090E802FFF737FE72
:103AF0000546052D06D06248006941F6EF71084081
:103B00005F4908612846BDE8F08330B505460424C6
:103B10004FF43020FFF723FE0446042C43D15A48CB
:103B200057498860594888600846006940F020007D
:103B300008610846006940F0400008614FF43020F9
:103B4000FFF70DFE0446042C24D14D48006941F6D0
:103B5000DF7108404A4908610846006940F01000DA
:103B6000086125B100204A490839088003E0A520F2
:103B70004749083908804FF43020FFF7F0FD04462C
:103B8000052C10D03E48006941F6EF7108403C49D1
:103B9000086108E0052C06D03948006941F6DF715C
:103BA000084037490861204630BDF0B505460E464D
:103BB0001746042434483249886034488860E0025B
:103BC000FFF7CDFD0446042C19D12D48006940F0C3
:103BD00010002B49086147F0F800304328432C4976
:103BE000891F0880E002FFF7BAFD0446052C06D0C5
:103BF0002348006941F6EF710840214908612046D9
:103C0000F0BD30B5054604241F481D4988601F4893
:103C10008860E002FFF7A3FD0446042C26D1184873
:103C2000006940F010001649086145B91848801F26
:103C3000008840F008001649891F088008E01448F1
:103C4000801F00884FF6F77108401149891F0880CE
:103C50004FF40050FFF783FD0446052C06D00848BA
:103C6000006941F6EF71084005490861204630BD02
:103C70000348C069800870470148006A7047000027
:103C800000200240FEFF070823016745AB89EFCD06
:103C900008F8FF1F00203549096801F0200109B12B
:103CA000012000E00020704700F0004282B139B1ED
:103CB0002E4A126D20F000431A432C4B1A6513E074
:103CC0002A4A126D20F000439A43284B1A650BE0F4
:103CD00029B1264A12690243244B1A6104E0234A9F
:103CE00012698243214B1A61704701460020012965
:103CF00008D11E4AD26902F001020AB1012013E084
:103D0000002011E001F000423AB1184AD26C0A409A
:103D10000AB1012008E0002006E0144AD2680A40F7
:103D20000AB1012000E00020704700F0004111B10D
:103D30000E49C86401E00D49C860704704200B4972
:103D4000C96801F0010109B101200EE00749C96805
:103D500001F0040109B1022007E00449C96801F03B
:103D6000100109B1032000E0042070470020024048
:103D700010B50446CC48844208D10121042000F04B
:103D8000B3FB0021042000F0AFFB46E0C7488442AB
:103D900008D10121082000F0A7FB0021082000F035
:103DA000A3FB3AE0C248844208D10121102000F070
:103DB0009BFB0021102000F097FB2EE0BD488442C1
:103DC00008D10121202000F08FFB0021202000F0ED
:103DD0008BFB22E0B848844208D10121402000F04A
:103DE00083FB0021402000F07FFB16E0B3488442B3
:103DF00008D10121802000F077FB0021802000F015
:103E000073FB0AE0AE48844207D10121801500F01F
:103E10006BFB0021A01500F067FB10BD10B5012160
:103E2000084600F061FB0021012000F05DFB10BDA1
:103E30002DE9F04102460025002600200023002441
:103E4000002791F803C00CF00F0591F803C00CF0A7
:103E5000100CBCF1000F03D091F802C04CEA05052C
:103E600091F800C0BCF1000F31D0146800202BE0A5
:103E70004FF0010C0CFA00F3B1F800C00CEA030695
:103E80009E4220D183004FF00F0C0CFA03F7BC4385
:103E900005FA03FC4CEA040491F803C0BCF1280FB6
:103EA00006D14FF0010C0CFA00FCC2F814C00AE075
:103EB00091F803C0BCF1480F05D14FF0010C0CFA8A
:103EC00000FCC2F810C0401C0828D1D31460B1F81F
:103ED00000C0BCF1FF0F34DD546800202EE000F17B
:103EE000080C4FF0010808FA0CF3B1F800C00CEA16
:103EF00003069E4221D183004FF00F0C0CFA03F70A
:103F0000BC4305FA03FC4CEA040491F803C0BCF17D
:103F1000280F05D100F1080C08FA0CF8C2F814803B
:103F200091F803C0BCF1480F07D100F1080C4FF025
:103F3000010808FA0CF8C2F81080401C0828CED3FB
:103F40005460BDE8F0814FF6FF710180022181705D
:103F50000421C17070470246002093680B400BB1EA
:103F6000012000E0002070470146886880B2704759
:103F700002460020D3680B400BB1012000E0002076
:103F800070470146C86880B270470161704741615F
:103F900070470AB1016100E041617047C16070473C
:103FA0004FF480320A438261816182618269826951
:103FB000704702460020434B18684FF68073184044
:103FC00040EA021008433F4B186070473E49C86101
:103FD0007047F0B50A46002300240021002500F0B8
:103FE0000046B6F1004F02D1364EF16901E0354E80
:103FF0007168C0F3034583B200F44016B6F5401F64
:1040000008D121F070612F4E766826F070662D4F32
:104010007E6012E000F48016B6F5801F06D10326FC
:1040200006FA05F4A14341F0706106E0460D360141
:1040300003FA06F6B14341F0706122B1460D360134
:1040400003FA06F6314300F00046B6F1004F02D104
:104050001C4EF16101E01B4E7160F0BD30B50022D5
:104060008B071C0F0F2303FA04F2164B08338C1036
:1040700053F824309343134C08348D1044F8253002
:1040800023468C1053F824308C07240F00FA04F4D4
:1040900023430C4C08348D1044F8253030BD0A49B8
:1040A000DC3108607047000000080140000C01404E
:1040B000001001400014014000180140001C0140A4
:1040C0000020014000000140000020420E4908602D
:1040D00070470D49486070470B49886070474AF641
:1040E000AA200949086070474CF6CC400649086090
:1040F000704701460020044AD2680A400AB10120F4
:1041000000E00020704700000030004010B50121A1
:10411000080700F0F6F900214FF0805000F0F1F9A7
:1041200010BD2A4908627047284908617047014656
:104130000020274A106820F0E00008431060704714
:104140002249A0310860704710B502460020204B7C
:10415000186820F00300104318601E4B1B6843F0E2
:1041600004031C4C2360012901D130BF00E020BFB3
:10417000184B1B6823F00403164C236010BD144831
:10418000006840F00400124908600846006840F0EA
:10419000020008600F48006840F004000D49086004
:1041A00000BF00BF30BF704701460020084A526878
:1041B0000A400AB1012000E0002070470449096864
:1041C00041EA8001024A11607047000000000E427F
:1041D0000070004010ED00E0DF48006840F0010092
:1041E000DD49086008464068DC490840DA49486013
:1041F00008460068DA490840D74908600846006860
:1042000020F4802008600846406820F4FE004860E2
:104210004FF41F0088607047CF49096821F480314E
:10422000CD4A11601146096821F480211160B0F572
:10423000803F03D0B0F5802F0ED106E0C649096853
:1042400041F48031C44A116007E0C349096841F470
:10425000A021C14A116000E000BF00BF704710B547
:1042600001460022002300204A11012A02D1BA4C43
:10427000236806E0022A02D1B74C236A01E0B64C5B
:10428000636A01F01F02012494401C400CB101201C
:1042900000E0002010BD38B500200090002400256B
:1042A00000BF3120FFF7DBFF05460098401C00905F
:1042B0000098B0F5A06F01D0002DF2D03120FFF7AB
:1042C000CEFF08B1012400E00024204638BD01469D
:1042D0000020A14A106820F0F80040EAC1001060F8
:1042E0007047A04908607047024600209A4B586802
:1042F00020F47C1042EA01031843974B5860704742
:1043000098490866704701460020934A506820F09B
:1043100003000843506070478F48406800F00C006D
:104320007047014600208C4A506820F0F000084396
:104330005060704701460020874A506820F4E060D2
:1043400008435060704701460020834A506820F4BB
:10435000605040EAC1005060704729B17E4A527AED
:1043600002437D4B5A7204E07B4A527A82437A4B75
:104370005A7270477B49D831086070470146002067
:10438000754A506820F4404008435060704700214F
:10439000714A20321170704A82F82010012802D030
:1043A00004280AD104E001216B4A2032117005E093
:1043B0000521694A2032117000E000BF00BF70473C
:1043C0006949086070476449096A0143624A116299
:1043D0007047654944390860704730B500210022B4
:1043E000002400235C4D6D6805F00C0121B1042907
:1043F00005D0082923D105E05C4D056022E05B4D26
:1044000005601FE0544D6D6805F47012524D6D68E3
:1044100005F48034022505EB92421CB9544D5543F6
:1044200005600BE04C4D6D6805F400351DB1504D35
:104430005543056002E04D4D5543056002E04B4D8C
:10444000056000BF00BF444D6D6805F0F00109092B
:10445000484D6B5C0568DD4045603F4D6D6805F477
:10446000E061090A434D6B5C4568DD4085603A4D6B
:104470006D6805F46051C90A3E4D6B5C4568DD40CE
:10448000C560354D6D6805F44041890B3A4D6B5C54
:10449000C568B5FBF3F5056130BD29B12E4A5269F7
:1044A00002432D4B5A6104E02B4A526982432A4B46
:1044B0005A61704729B1284A92690243264B9A6192
:1044C00004E0254A92698243234B9A61704729B1DF
:1044D000214AD2690243204BDA6104E01E4AD269C4
:1044E00082431D4BDA61704729B11B4AD2680243EF
:1044F000194BDA6004E0184AD2688243164BDA603E
:10450000704729B1144A12690243134B1A6104E03F
:10451000114A12698243104B1A617047124940399F
:10452000086070470F49C86470470B49C8717047ED
:104530000948406A40F08070074948627047014668
:104540000020054A92680A400AB1012000E00020DC
:104550007047014988727047001002400000FFF860
:10456000FFFFF6FE000042428004424200127A0041
:1045700000093D00700000208000002029B1504A51
:10458000128802434E4B1A8004E04D4A128882433F
:104590004B4B1A8070474A48001D008840F01000BD
:1045A0004749091D088070474548001D00884FF69F
:1045B000EF7108404249091D0880704700214048BA
:1045C0001C300188001F008841EA0040704700B598
:1045D0000246FFF7E0FF100C394918310880091D29
:1045E0000A80FFF7E1FF00BD00B50246FFF7D3FFE9
:1045F000C2F30340324908310880091D0A80FFF7E1
:10460000D3FF00BD00B50246FFF7C5FF100C2C49D3
:1046100020310880091D0A80FFF7C6FF00BD002079
:104620002749103109880907080B254914310988E1
:104630000843704700BF2248001D008800F020009A
:104640000028F8D070471E48001D00884FF6F7710B
:1046500008401B49091D088000BF1948001D00883B
:1046600000F008000028F8D0704701460020144AE6
:10467000121D12880A400AB1012000E00020704794
:104680000F49091D098881430D4A121D1180704789
:10469000014600200A4A121D12880A40D0B2084A78
:1046A00012880A4012B108B1012000E000207047D2
:1046B0000349091D09888143014A121D1180704771
:1046C0000028004010B50446FE48844208D101216C
:1046D000C014FFF709FF0021E014FFF705FFC4E055
:1046E000B4F1804F08D101210846FFF70AFF0021ED
:1046F0000120FFF706FFB8E0F348844208D101210A
:104700000220FFF7FEFE00210220FFF7FAFEACE0D8
:10471000EE48844208D101210420FFF7F2FE002177
:104720000420FFF7EEFEA0E0E948844208D1012111
:104730000820FFF7E6FE00210820FFF7E2FE94E0E4
:10474000E448844208D101211020FFF7DAFE00215D
:104750001020FFF7D6FE88E0DF48844208D101210F
:104760002020FFF7CEFE00212020FFF7CAFE7CE0CC
:10477000DA48844208D101214014FFF7B5FE002138
:104780006014FFF7B1FE70E0D548844209D10121E1
:10479000C804FFF7A9FE00214FF40020FFF7A4FE94
:1047A00063E0D048844209D101210805FFF79CFE4F
:1047B00000214FF48010FFF797FE56E0CA4884426C
:1047C00009D101214805FFF78FFE00214FF40010A9
:1047D000FFF78AFE49E0C548844208D10121402004
:1047E000FFF78FFE00214020FFF78BFE3DE0C04821
:1047F000844208D101218020FFF783FE0021802020
:10480000FFF77FFE31E0BB48844208D101218015CB
:10481000FFF777FE0021A015FFF773FE25E0B648ED
:10482000844209D101210804FFF75EFE00214FF404
:104830008030FFF759FE18E0B048844209D10121C9
:104840004804FFF751FE00214FF40030FFF74CFE03
:104850000BE0AB48844208D101218804FFF744FEF5
:1048600000214FF48020FFF73FFE10BD0022028898
:10487000944B98420ED0994B98420BD0B0F1804F98
:1048800008D0914B984205D0904B984202D0904B63
:10489000984204D14FF68F731A404B881A438D4BC0
:1048A000984207D08C4B984204D04FF6FF431A40F1
:1048B000CB881A4302808B8883850B880385814BC4
:1048C00098420BD0854B984208D08B4B984205D02C
:1048D0008A4B984202D08A4B984201D10B7A0386C8
:1048E00001238382704770B5002400220023058CC9
:1048F0004FF6FE7635400584028C8388048B4FF694
:104900008F752C40B51E2C400D882C43751E2A40F7
:104910000D892A434D882A436A4DA8420BD06F4D1A
:10492000A84208D0744DA84205D0744DA84202D0C8
:10493000734DA84213D14FF6F7752A404D892A438B
:104940004FF6FB752A408D882A434FF6FF652B40B2
:104950004FF6FF552B408D892B43CD892B43838008
:104960000483CD888586028470BD70B50024002242
:104970000023058C4FF6EF7635400584028C838842
:10498000048B48F6FF752C404FF6FF452C400D88F0
:104990004FF6FF7606EA05252C434FF6DF752A40D1
:1049A0000D8906EA05152A434D8806EA05152A43AE
:1049B000444DA84202D0494DA8421DD14FF67F7503
:1049C0002A404D894FF6FF7606EA05152A434FF631
:1049D000BF752A408D8806EA05152A434FF6FF3534
:1049E0002B404FF2FF752B408D8906EA85052B433E
:1049F000CD8906EA85052B4383800483CD8805870E
:104A0000028470BD70B5002400220023058C4FF68F
:104A1000FF6635400584028C8388848B4FF68F7542
:104A20002C404FF6FC752C400D882C434FF6FF555B
:104A30002A400D894FF6FF7606EA05252A434D8860
:104A400006EA05252A431F4DA84202D0234DA8425D
:104A50001DD14FF2FF752A404D894FF6FF7606EAC9
:104A600005252A434FF6FF352A408D8806EA05259D
:104A70002A434EF6FF752B404DF6FF752B408D896E
:104A800006EA05152B43CD8906EA05152B438380DD
:104A90008483CD888587028470BD70B50022002391
:104AA0000024058C4EF6FF7635400584038C8488FF
:104AB000828B48F6FF752A404FF6FF452A400D8845
:104AC00020E00000002C01400004004000080040ED
:104AD000000C004000100040001400400034014071
:104AE000004C0140005001400054014000180040BB
:104AF000001C0040002000400040014000440140F4
:104B0000004801404FF6FF7606EA05252A434DF698
:104B1000FF752B400D8906EA05352B434D8806EAC3
:104B200005352B43FA4DA84202D0FA4DA84208D1D0
:104B30004BF6FF752C408D894FF6FF7606EA8515FA
:104B40002C4384808283CD88A0F84050038470BDBC
:104B5000828B4FF2FF331A408283828B4FF6FF73B2
:104B600003EA01231A4382837047F0B50C461546C9
:104B7000002200210026078C4EF6FF7C07EA0C0776
:104B80000784828B018C4FF6FF7707EA043640F6E4
:104B9000FF473A404FF6FF7707EA05273A434FF6BB
:104BA000FF7707EA03373A43D94FB8420ED0D94FBF
:104BB000B8420BD0B0F1804F08D0D74FB84205D0E3
:104BC000D64FB84202D0D64FB84206D14DF6FF7745
:104BD000394046F48057394305E047F6FF573940DE
:104BE00044F48057394382830184F0BD828B4FF6B1
:104BF000F3731A408283828B0A4382837047F0B535
:104C00000C461546002200210026078C4FF6FF6C4B
:104C100007EA0C070784828B018C4FF6FF7707EABF
:104C200004264FF60C773A404FF6FF7707EA031752
:104C30002F433A43B64FB8420ED0B64FB8420BD0CE
:104C4000B0F1804F08D0B44FB84205D0B34FB8424E
:104C500002D0B34FB84206D14FF6FF57394046F461
:104C60008077394305E04FF2FF57394044F48077AD
:104C7000394382830184F0BD028B4FF2FF331A4027
:104C80000283028B4FF6FF7303EA01231A43028368
:104C90007047F0B50C461546002200210026078C0F
:104CA0004FF6EF7C07EA0C070784028B018C4FF666
:104CB000FF7707EA041640F6FF473A404FF6FF77C2
:104CC00007EA03373A434FF6FF7707EA05273A43E7
:104CD0008F4FB8420ED08F4FB8420BD0B0F1804FFB
:104CE00008D08D4FB84205D08C4FB84202D08C4FBF
:104CF000B84206D14FF6DF77394046F01007394306
:104D000005E04FF65F77394044F0100739430283DE
:104D10000184F0BD028B4FF6F3731A400283028BBD
:104D20000A4302837047F0B50C4615460022002165
:104D3000068C4FF6FE773E400684028B018C4FF6C0
:104D40000C7632407E1C06EA03162E433243704E28
:104D5000B0420ED06F4EB0420BD0B0F1804F08D0B1
:104D60006D4EB04205D06D4EB04202D06C4EB04296
:104D700006D14FF6FD76314044F00106314305E09F
:104D80004FF6F576314044F0010631430283018449
:104D9000F0BD70B505460C465D4885420ED05D48B5
:104DA00085420BD0B5F1804F08D05B48854205D0D5
:104DB0005A48854202D05A48854200D100E000BFDF
:104DC000208850B92389A28861882846FFF7ABFF65
:104DD000E1882846FFF79EFF25E0208804280AD1B5
:104DE0002389A28861882846FFF753FFE188284677
:104DF000FFF742FF17E0208808280AD12389A288FC
:104E000061882846FFF7FBFEE1882846FFF7EEFEA3
:104E100009E02389A28861882846FFF7A6FEE18879
:104E20002846FFF795FE70BD2DE9F04105460C467A
:104E300000260127608808B9022600E00026A08825
:104E4000012801D1022700E001272088A0B9238989
:104E5000A28861882846FFF766FFE1882846FFF7A9
:104E600059FF23893A4631462846FFF712FFE18869
:104E70002846FFF701FF13E02389A28861882846AE
:104E8000FFF707FFE1882846FFF7F6FE23893A4639
:104E900031462846FFF747FFE1882846FFF73AFFEB
:104EA000BDE8F0810A884B881A438B881A43CB8867
:104EB0001A430B891A434B891A438B891A43A0F86A
:104EC000442070474FF6FF71818000210180C1802E
:104ED0004180017270470021018041808180C18042
:104EE000018141818181C181704700210180418020
:104EF000012181800021C180018170470021018052
:104F000041808180C18001814181818170470000A1
:104F1000002C014000340140000400400008004023
:104F2000000C004021B1028842F00102028004E03E
:104F300002884FF6FE731A400280704731B1B0F814
:104F4000442042F40042A0F8442005E0B0F8442098
:104F5000C2F30E02A0F8442070471AB183890B43B4
:104F6000838102E083898B4383817047818270470C
:104F700041EA0203A0F8483070471AB183890B4315
:104F8000838102E083898B438381704701894FF6D7
:104F9000F8721140018170470A46002101894FF6DD
:104FA0008F73194011430181704730B504460D4697
:104FB00029462046FFF7F0FF208940F007002081B6
:104FC00030BD2DE9F04104460D4616461F46602DC2
:104FD00006D13B46012231462046FFF75AFE05E046
:104FE0003B46012231462046FFF79DFE29462046DA
:104FF000FFF7D2FF208940F007002081BDE8F08153
:1050000030B50C4600210189C9B24FF6FF7505EA9B
:105010000325154325432943018130BD2DE9F04186
:1050200005460E4617469846002443463A46314602
:105030002846FFF7E5FF2C894FF6F870044044F04E
:1050400007044FF68F70044044F070042C81BDE8D3
:10505000F081F0B504460D4616461F463B463246E3
:1050600029462046FFF7CCFF208940F4804020816C
:10507000F0BD0185828270470A46002101884FF603
:105080008F731940114301807047F0B50C461546E7
:105090001E460021002200230189028B038C4FF65B
:1050A000F877394021434FF6FC473A4040F2011768
:1050B0003A434FF6DD773B404FF6FF7707EA061796
:1050C0002F433B43018102830384F0BD0A46002144
:1050D000018B4FF68F7319401143018370470A46C5
:1050E0000021018B48F6FF7319404FF6FF7303EA66
:1050F00002231943018370470A460021818B4FF632
:105100008F7319401143818370470A460021818BB8
:1051100048F6FF7319404FF6FF7303EA0223194361
:105120008183704721B1028842F08002028004E04E
:1051300002884FF67F731A400280704721B182883F
:1051400042F00402828004E082884FF6FB731A402A
:105150008280704721B1828842F00802828004E098
:1051600082884FF6F7731A408280704721B1828897
:1051700042F00102828004E082884FF6FE731A40FA
:10518000828070470A460021018B4FF6F773194061
:105190001143018370470A460021018B4FF2FF73D0
:1051A00019404FF6FF7303EA022319430183704746
:1051B0000A460021818B4FF6F77319401143818312
:1051C00070470A460021818B4FF2FF7319404FF65A
:1051D000FF7303EA02231943818370470A460021C3
:1051E000018B4FF6FB7319401143018370470A4648
:1051F0000021018B4FF6FF3319404FF6FF7303EA8E
:1052000002231943018370470A460021818B4FF620
:10521000FB7319401143818370470A460021818B3B
:105220004FF6FF3319404FF6FF7303EA0223194389
:10523000818370470A460021018B4FF67F73194026
:105240001143018370470A460021018BC1F30E010F
:105250004FF6FF7303EA02231943018370470A469E
:105260000021818B4FF67F73194011438183704772
:105270000A460021818BC1F30E014FF6FF7303EA4A
:1052800002231943818370470A460021018C4FF69F
:10529000FD7319401143018470470A460021018CB7
:1052A0004FF6F77319401143018470470A460021F5
:1052B000018C4FF6DF7319404FF6FF7303EA0213B8
:1052C0001943018470470A460021018C4FF67F7311
:1052D00019404FF6FF7303EA021319430184704724
:1052E0000A460021018C4FF6FF5319404FF6FF7319
:1052F00003EA02231943018470470A460021018C06
:105300004FF2FF7319404FF6FF7303EA022319436C
:10531000018470470A460021018C4DF6FF73194045
:105320004FF6FF7303EA023319430184704730B527
:10533000002301248C40A3B2048C9C430484048C7D
:1053400002FA01F5ADB22C43048430BD30B5002320
:1053500004248C40A3B2048C9C430484048C02FA81
:1053600001F5ADB22C43048430BD70B50346002076
:1053700000241846183001258D40ACB21D8CA54381
:105380001D8409B1082909D100EB6100056825F0E9
:10539000700505600568154305600EE00D1FC5F337
:1053A0004E052844056825F4E045056005684FF67C
:1053B000FF7606EA02263543056070BD21B10288FA
:1053C00042F00202028004E002884FF6FD731A40A8
:1053D0000280704721B1028842F00402028004E09A
:1053E00002884FF6FB731A400280704721B1828811
:1053F00042F08002828004E082884FF67F731A4078
:105400008280704702884FF6F7731A400280028844
:105410000A430280704782884FF68F731A40828059
:1054200082880A438280704702894FF6F8731A40D7
:10543000028102890A430281704702894FF67F7315
:105440001A40028102890A430281704781847047B1
:1054500081857047818670470187704781877047D3
:10546000A0F84010704702884FF6FF431A400280B0
:1054700002880A43028070470146888E70470146C1
:10548000088F70470146888F70470146B1F8400089
:1054900070470146888C70470146088D7047024668
:1054A0000020138A0B400BB1012000E00020704760
:1054B000CA430282704730B5024600200023002410
:1054C000158A05EA0103958905EA010413B10CB1B7
:1054D000012000E0002030BDCA4302827047000076
:1054E00010B50446FB48844209D101218803FEF728
:1054F000FBFF00214FF48040FEF7F6FF32E0F64854
:10550000844209D101214804FEF7FBFF00214FF43A
:105510000030FEF7F6FF25E0F048844209D1012172
:105520008804FEF7EEFF00214FF48020FEF7E9FF2C
:1055300018E0EB48844209D10121C804FEF7E1FFDD
:1055400000214FF40020FEF7DCFF0BE0E548844229
:1055500008D101210805FEF7D4FF00214FF4801087
:10556000FEF7CFFF10BD2DE9F04786B005460E4689
:105570000024A24600BFA1460027B08900B100BFA9
:105580002F462C8A4CF6FF700440F08804432C828E
:10559000AC894EF6F3100440B08831890843718914
:1055A00008430443AC81AC8A4FF6FF400440B08905
:1055B0000443AC8201A8FEF710FFC648874202D11F
:1055C000DDF810A001E0DDF80CA0A88900F400408F
:1055D00040B10AEBCA0000EB0A1031684900B0FB89
:1055E000F1F807E00AEBCA0000EB0A103168890005
:1055F000B0FBF1F86420B8FBF0F00401200964214D
:1056000001FB1089A88900F4004040B1322000EB72
:10561000C900B0FBF1F000F00700044308E03220BD
:1056200000EB09106421B0FBF1F000F00F0004431F
:105630002C8106B0BDE8F0874FF4165101600021BF
:105640008180C18001810C214181002181817047CD
:1056500010B502460020108A4FF2FF0318400B8855
:105660004C8823438C882343CC88234318431082DF
:1056700010BD0021018041808180C180704721B12F
:10568000828942F40052828104E082894DF6FF73E0
:105690001A4082817047F0B5034600240026002599
:1056A000002040F66A17B94200D100BF1846C1F386
:1056B000421401F01F06012707FA06F5012C01D15B
:1056C0000C3004E0022C01D1103000E014301AB18B
:1056D00007682F43076002E00768AF430760F0BD2B
:1056E0001AB1838A0B43838202E0838A8B438382CD
:1056F0007047028A4FF6F0731A400282028A0A4308
:105700000282704782894FF2FF731A408281828938
:105710000A438281704721B1828942F0020282816C
:1057200004E082894FF6FD731A4082817047028A35
:105730004FF6DF731A400282028A0A4302827047E0
:1057400021B1028A42F48042028204E0028A4BF6CE
:10575000FF731A4002827047C1F3080282807047CB
:1057600001468888C0F308007047818941F0010133
:1057700081817047028BD2B20283028B42EA0122FE
:1057800002837047028B02F47F420283028B0A433A
:105790000283704721B1828A42F02002828204E0B3
:1057A000828A4FF6DF731A408282704721B1828A63
:1057B00042F01002828204E0828A4FF6EF731A40B0
:1057C0008282704721B1828A42F00802828204E01C
:1057D000828A4FF6F7731A408282704721B182891C
:1057E00042F40042828103E08289C2F30E02828188
:1057F000704721B1828A42F40062828204E0828A88
:105800004FF2FF731A4082827047828A4FF6FB7311
:105810001A408282828A0A438282704721B1828A38
:1058200042F00202828204E0828A4FF6FD731A403F
:105830008282704702460020B1F5007F00D100BF90
:1058400013880B400BB1012000E00020704701F4E9
:105850000072B2F5007F00D100BFCA4302807047DA
:1058600070B50246002400230025002040F66A1689
:10587000B14200D100BFC1F3421501F01F03012660
:1058800006FA03F3012D02D19689334006E0022D7A
:1058900002D1168A334001E0968A33400C12012669
:1058A00006FA04F41688344013B10CB1012000E06C
:1058B000002070BD10B50022002340F66A14A142FA
:1058C00000D100BF0A1201249440A3B2DC4304803B
:1058D00010BD000000380140004400400048004076
:1058E000004C00400050004000B585B06846FEF70F
:1058F00074FD019805B000BD10B5FFF7F5FF044633
:105900001748006840F0807015490860002015496C
:1059100048600846006840F001000860204600F03A
:105920002AF910BD0F49486870472DE9F0478246B3
:10593000FFF7DAFF4FF0000980460B4A002340468C
:1059400049460AF06BFC064632460B46504600219B
:105950000AF064FC04460D4620462946BDE8F0875F
:10596000FCED00E0001000E040420F0010B5FB48E5
:105970000088401EF949088008460088A0B9FFF752
:10598000D1FFF749086008460068F6490968441ADB
:10599000F5480068A04201D2F3480460F34800686B
:1059A000A04201D2F148046010BD10B5F048008853
:1059B000401CEF490880E948008818B9FFF7B2FF9A
:1059C000E8490860E5480088401CE449088010BDAB
:1059D00010B5002400BF00BF00F0EAF9044600BF84
:1059E000FFF7E3FF00BF1021E24800F06FFB00BFAC
:1059F000FFF7BCFF00BF204600F0DEF900BF00BF8C
:105A000010BD10B5FFF7E4FF10BD70B500260020F3
:105A1000D7490880D1490880D2490860D049086038
:105A2000D1490860D1490860D3490860002400BF0B
:105A300000F0BEF9064600BF00250BE00020CA4971
:105A40000860FFF7B2FFFFF791FFC7480068044402
:105A5000681C85B2002DF1D0C74804600020C249FF
:105A60000860C249086000BF304600F0A5F900BFD9
:105A700070BD10B50020C1490860FFF73DFF10BDA3
:105A800010B5FFF7F6FFFFF7C0FFFFF7BAFF10BD35
:105A900000BFFEE770B505460C46002614B900BFEE
:105AA000FFF7F6FF15B90A20208070BD00BF00BFC8
:105AB00000F07EF9064600BFFFF777FF00BF102217
:105AC000AC49284601F094FA00BFFFF74FFF00BF32
:105AD000304600F071F900BF00BF0020208000BFF9
